{
  "_format": "hh-sol-artifact-1",
  "contractName": "NFTMarketplace",
  "sourceName": "contracts/NFTMarketplace.sol",
  "abi": [
    {
      "inputs": [],
      "stateMutability": "nonpayable",
      "type": "constructor"
    },
    {
      "anonymous": false,
      "inputs": [
        {
          "indexed": true,
          "internalType": "address",
          "name": "owner",
          "type": "address"
        },
        {
          "indexed": true,
          "internalType": "address",
          "name": "approved",
          "type": "address"
        },
        {
          "indexed": true,
          "internalType": "uint256",
          "name": "tokenId",
          "type": "uint256"
        }
      ],
      "name": "Approval",
      "type": "event"
    },
    {
      "anonymous": false,
      "inputs": [
        {
          "indexed": true,
          "internalType": "address",
          "name": "owner",
          "type": "address"
        },
        {
          "indexed": true,
          "internalType": "address",
          "name": "operator",
          "type": "address"
        },
        {
          "indexed": false,
          "internalType": "bool",
          "name": "approved",
          "type": "bool"
        }
      ],
      "name": "ApprovalForAll",
      "type": "event"
    },
    {
      "anonymous": false,
      "inputs": [
        {
          "indexed": false,
          "internalType": "uint256",
          "name": "_fromTokenId",
          "type": "uint256"
        },
        {
          "indexed": false,
          "internalType": "uint256",
          "name": "_toTokenId",
          "type": "uint256"
        }
      ],
      "name": "BatchMetadataUpdate",
      "type": "event"
    },
    {
      "anonymous": false,
      "inputs": [
        {
          "indexed": false,
          "internalType": "uint256",
          "name": "_tokenId",
          "type": "uint256"
        }
      ],
      "name": "MetadataUpdate",
      "type": "event"
    },
    {
      "anonymous": false,
      "inputs": [
        {
          "indexed": true,
          "internalType": "address",
          "name": "from",
          "type": "address"
        },
        {
          "indexed": true,
          "internalType": "address",
          "name": "to",
          "type": "address"
        },
        {
          "indexed": true,
          "internalType": "uint256",
          "name": "tokenId",
          "type": "uint256"
        }
      ],
      "name": "Transfer",
      "type": "event"
    },
    {
      "anonymous": false,
      "inputs": [
        {
          "indexed": true,
          "internalType": "uint256",
          "name": "tokenId",
          "type": "uint256"
        },
        {
          "indexed": false,
          "internalType": "address",
          "name": "seller",
          "type": "address"
        },
        {
          "indexed": false,
          "internalType": "address",
          "name": "owner",
          "type": "address"
        },
        {
          "indexed": false,
          "internalType": "uint256",
          "name": "price",
          "type": "uint256"
        },
        {
          "indexed": false,
          "internalType": "bool",
          "name": "sold",
          "type": "bool"
        }
      ],
      "name": "idMarketItemCreated",
      "type": "event"
    },
    {
      "inputs": [
        {
          "internalType": "address",
          "name": "to",
          "type": "address"
        },
        {
          "internalType": "uint256",
          "name": "tokenId",
          "type": "uint256"
        }
      ],
      "name": "approve",
      "outputs": [],
      "stateMutability": "nonpayable",
      "type": "function"
    },
    {
      "inputs": [
        {
          "internalType": "address",
          "name": "owner",
          "type": "address"
        }
      ],
      "name": "balanceOf",
      "outputs": [
        {
          "internalType": "uint256",
          "name": "",
          "type": "uint256"
        }
      ],
      "stateMutability": "view",
      "type": "function"
    },
    {
      "inputs": [
        {
          "internalType": "uint256",
          "name": "tokenId",
          "type": "uint256"
        }
      ],
      "name": "createMarketSale",
      "outputs": [],
      "stateMutability": "payable",
      "type": "function"
    },
    {
      "inputs": [
        {
          "internalType": "string",
          "name": "tokenURI",
          "type": "string"
        },
        {
          "internalType": "uint256",
          "name": "price",
          "type": "uint256"
        }
      ],
      "name": "createToken",
      "outputs": [
        {
          "internalType": "uint256",
          "name": "",
          "type": "uint256"
        }
      ],
      "stateMutability": "payable",
      "type": "function"
    },
    {
      "inputs": [],
      "name": "fetchItemsListed",
      "outputs": [
        {
          "components": [
            {
              "internalType": "uint256",
              "name": "tokenId",
              "type": "uint256"
            },
            {
              "internalType": "address payable",
              "name": "seller",
              "type": "address"
            },
            {
              "internalType": "address payable",
              "name": "owner",
              "type": "address"
            },
            {
              "internalType": "uint256",
              "name": "price",
              "type": "uint256"
            },
            {
              "internalType": "bool",
              "name": "sold",
              "type": "bool"
            }
          ],
          "internalType": "struct NFTMarketplace.MarketItem[]",
          "name": "",
          "type": "tuple[]"
        }
      ],
      "stateMutability": "view",
      "type": "function"
    },
    {
      "inputs": [],
      "name": "fetchMarketItem",
      "outputs": [
        {
          "components": [
            {
              "internalType": "uint256",
              "name": "tokenId",
              "type": "uint256"
            },
            {
              "internalType": "address payable",
              "name": "seller",
              "type": "address"
            },
            {
              "internalType": "address payable",
              "name": "owner",
              "type": "address"
            },
            {
              "internalType": "uint256",
              "name": "price",
              "type": "uint256"
            },
            {
              "internalType": "bool",
              "name": "sold",
              "type": "bool"
            }
          ],
          "internalType": "struct NFTMarketplace.MarketItem[]",
          "name": "",
          "type": "tuple[]"
        }
      ],
      "stateMutability": "view",
      "type": "function"
    },
    {
      "inputs": [],
      "name": "fetchMyNFT",
      "outputs": [
        {
          "components": [
            {
              "internalType": "uint256",
              "name": "tokenId",
              "type": "uint256"
            },
            {
              "internalType": "address payable",
              "name": "seller",
              "type": "address"
            },
            {
              "internalType": "address payable",
              "name": "owner",
              "type": "address"
            },
            {
              "internalType": "uint256",
              "name": "price",
              "type": "uint256"
            },
            {
              "internalType": "bool",
              "name": "sold",
              "type": "bool"
            }
          ],
          "internalType": "struct NFTMarketplace.MarketItem[]",
          "name": "",
          "type": "tuple[]"
        }
      ],
      "stateMutability": "view",
      "type": "function"
    },
    {
      "inputs": [
        {
          "internalType": "uint256",
          "name": "tokenId",
          "type": "uint256"
        }
      ],
      "name": "getApproved",
      "outputs": [
        {
          "internalType": "address",
          "name": "",
          "type": "address"
        }
      ],
      "stateMutability": "view",
      "type": "function"
    },
    {
      "inputs": [],
      "name": "getListingPrice",
      "outputs": [
        {
          "internalType": "uint256",
          "name": "",
          "type": "uint256"
        }
      ],
      "stateMutability": "view",
      "type": "function"
    },
    {
      "inputs": [
        {
          "internalType": "address",
          "name": "owner",
          "type": "address"
        },
        {
          "internalType": "address",
          "name": "operator",
          "type": "address"
        }
      ],
      "name": "isApprovedForAll",
      "outputs": [
        {
          "internalType": "bool",
          "name": "",
          "type": "bool"
        }
      ],
      "stateMutability": "view",
      "type": "function"
    },
    {
      "inputs": [],
      "name": "name",
      "outputs": [
        {
          "internalType": "string",
          "name": "",
          "type": "string"
        }
      ],
      "stateMutability": "view",
      "type": "function"
    },
    {
      "inputs": [
        {
          "internalType": "uint256",
          "name": "tokenId",
          "type": "uint256"
        }
      ],
      "name": "ownerOf",
      "outputs": [
        {
          "internalType": "address",
          "name": "",
          "type": "address"
        }
      ],
      "stateMutability": "view",
      "type": "function"
    },
    {
      "inputs": [
        {
          "internalType": "uint256",
          "name": "tokenId",
          "type": "uint256"
        },
        {
          "internalType": "uint256",
          "name": "price",
          "type": "uint256"
        }
      ],
      "name": "resellToken",
      "outputs": [],
      "stateMutability": "payable",
      "type": "function"
    },
    {
      "inputs": [
        {
          "internalType": "address",
          "name": "from",
          "type": "address"
        },
        {
          "internalType": "address",
          "name": "to",
          "type": "address"
        },
        {
          "internalType": "uint256",
          "name": "tokenId",
          "type": "uint256"
        }
      ],
      "name": "safeTransferFrom",
      "outputs": [],
      "stateMutability": "nonpayable",
      "type": "function"
    },
    {
      "inputs": [
        {
          "internalType": "address",
          "name": "from",
          "type": "address"
        },
        {
          "internalType": "address",
          "name": "to",
          "type": "address"
        },
        {
          "internalType": "uint256",
          "name": "tokenId",
          "type": "uint256"
        },
        {
          "internalType": "bytes",
          "name": "data",
          "type": "bytes"
        }
      ],
      "name": "safeTransferFrom",
      "outputs": [],
      "stateMutability": "nonpayable",
      "type": "function"
    },
    {
      "inputs": [
        {
          "internalType": "address",
          "name": "operator",
          "type": "address"
        },
        {
          "internalType": "bool",
          "name": "approved",
          "type": "bool"
        }
      ],
      "name": "setApprovalForAll",
      "outputs": [],
      "stateMutability": "nonpayable",
      "type": "function"
    },
    {
      "inputs": [
        {
          "internalType": "bytes4",
          "name": "interfaceId",
          "type": "bytes4"
        }
      ],
      "name": "supportsInterface",
      "outputs": [
        {
          "internalType": "bool",
          "name": "",
          "type": "bool"
        }
      ],
      "stateMutability": "view",
      "type": "function"
    },
    {
      "inputs": [],
      "name": "symbol",
      "outputs": [
        {
          "internalType": "string",
          "name": "",
          "type": "string"
        }
      ],
      "stateMutability": "view",
      "type": "function"
    },
    {
      "inputs": [
        {
          "internalType": "uint256",
          "name": "tokenId",
          "type": "uint256"
        }
      ],
      "name": "tokenURI",
      "outputs": [
        {
          "internalType": "string",
          "name": "",
          "type": "string"
        }
      ],
      "stateMutability": "view",
      "type": "function"
    },
    {
      "inputs": [
        {
          "internalType": "address",
          "name": "from",
          "type": "address"
        },
        {
          "internalType": "address",
          "name": "to",
          "type": "address"
        },
        {
          "internalType": "uint256",
          "name": "tokenId",
          "type": "uint256"
        }
      ],
      "name": "transferFrom",
      "outputs": [],
      "stateMutability": "nonpayable",
      "type": "function"
    },
    {
      "inputs": [
        {
          "internalType": "uint256",
          "name": "_listingPrice",
          "type": "uint256"
        }
      ],
      "name": "updateListingPrice",
      "outputs": [],
      "stateMutability": "payable",
      "type": "function"
    }
  ],
  "bytecode": "0x60806040526706f05b59d3b200006009553480156200001d57600080fd5b506040518060400160405280600f81526020017f50756c736520506c617a61204e465400000000000000000000000000000000008152506040518060400160405280600881526020017f504c53504c415a4100000000000000000000000000000000000000000000000081525081600090816200009b919062000371565b508060019081620000ad919062000371565b50505033600a60006101000a81548173ffffffffffffffffffffffffffffffffffffffff021916908373ffffffffffffffffffffffffffffffffffffffff16021790555062000458565b600081519050919050565b7f4e487b7100000000000000000000000000000000000000000000000000000000600052604160045260246000fd5b7f4e487b7100000000000000000000000000000000000000000000000000000000600052602260045260246000fd5b600060028204905060018216806200017957607f821691505b6020821081036200018f576200018e62000131565b5b50919050565b60008190508160005260206000209050919050565b60006020601f8301049050919050565b600082821b905092915050565b600060088302620001f97fffffffffffffffffffffffffffffffffffffffffffffffffffffffffffffffff82620001ba565b620002058683620001ba565b95508019841693508086168417925050509392505050565b6000819050919050565b6000819050919050565b6000620002526200024c62000246846200021d565b62000227565b6200021d565b9050919050565b6000819050919050565b6200026e8362000231565b620002866200027d8262000259565b848454620001c7565b825550505050565b600090565b6200029d6200028e565b620002aa81848462000263565b505050565b5b81811015620002d257620002c660008262000293565b600181019050620002b0565b5050565b601f8211156200032157620002eb8162000195565b620002f684620001aa565b8101602085101562000306578190505b6200031e6200031585620001aa565b830182620002af565b50505b505050565b600082821c905092915050565b6000620003466000198460080262000326565b1980831691505092915050565b600062000361838362000333565b9150826002028217905092915050565b6200037c82620000f7565b67ffffffffffffffff81111562000398576200039762000102565b5b620003a4825462000160565b620003b1828285620002d6565b600060209050601f831160018114620003e95760008415620003d4578287015190505b620003e0858262000353565b86555062000450565b601f198416620003f98662000195565b60005b828110156200042357848901518255600182019150602085019450602081019050620003fc565b868310156200044357848901516200043f601f89168262000333565b8355505b6001600288020188555050505b505050505050565b6144bd80620004686000396000f3fe60806040526004361061012a5760003560e01c806372b3b620116100ab578063b88d4fde1161006f578063b88d4fde146103ea578063be9af53614610413578063c18763f71461042f578063c87b56dd1461045a578063e219fc7514610497578063e985e9c5146104b35761012a565b806372b3b6201461031f5780638fafd0211461034f57806395d89b411461037a578063a22cb465146103a5578063ae677aa3146103ce5761012a565b806323b872dd116100f257806323b872dd1461022857806342842e0e1461025157806345f8fa801461027a5780636352211e146102a557806370a08231146102e25761012a565b806301ffc9a71461012f57806306fdde031461016c578063081812fc14610197578063095ea7b3146101d457806312e85585146101fd575b600080fd5b34801561013b57600080fd5b5061015660048036038101906101519190612c83565b6104f0565b6040516101639190612ccb565b60405180910390f35b34801561017857600080fd5b50610181610551565b60405161018e9190612d76565b60405180910390f35b3480156101a357600080fd5b506101be60048036038101906101b99190612dce565b6105e3565b6040516101cb9190612e3c565b60405180910390f35b3480156101e057600080fd5b506101fb60048036038101906101f69190612e83565b610629565b005b34801561020957600080fd5b50610212610740565b60405161021f9190612ed2565b60405180910390f35b34801561023457600080fd5b5061024f600480360381019061024a9190612eed565b61074a565b005b34801561025d57600080fd5b5061027860048036038101906102739190612eed565b6107aa565b005b34801561028657600080fd5b5061028f6107ca565b60405161029c9190613096565b60405180910390f35b3480156102b157600080fd5b506102cc60048036038101906102c79190612dce565b610ab6565b6040516102d99190612e3c565b60405180910390f35b3480156102ee57600080fd5b50610309600480360381019061030491906130b8565b610b3c565b6040516103169190612ed2565b60405180910390f35b6103396004803603810190610334919061321a565b610bf3565b6040516103469190612ed2565b60405180910390f35b34801561035b57600080fd5b50610364610c35565b6040516103719190613096565b60405180910390f35b34801561038657600080fd5b5061038f610e9d565b60405161039c9190612d76565b60405180910390f35b3480156103b157600080fd5b506103cc60048036038101906103c791906132a2565b610f2f565b005b6103e860048036038101906103e39190612dce565b610f45565b005b3480156103f657600080fd5b50610411600480360381019061040c9190613383565b61106f565b005b61042d60048036038101906104289190612dce565b6110d1565b005b34801561043b57600080fd5b5061044461136d565b6040516104519190613096565b60405180910390f35b34801561046657600080fd5b50610481600480360381019061047c9190612dce565b611659565b60405161048e9190612d76565b60405180910390f35b6104b160048036038101906104ac9190613406565b61176b565b005b3480156104bf57600080fd5b506104da60048036038101906104d59190613446565b611960565b6040516104e79190612ccb565b60405180910390f35b6000634906490660e01b7bffffffffffffffffffffffffffffffffffffffffffffffffffffffff1916827bffffffffffffffffffffffffffffffffffffffffffffffffffffffff1916148061054a5750610549826119f4565b5b9050919050565b606060008054610560906134b5565b80601f016020809104026020016040519081016040528092919081815260200182805461058c906134b5565b80156105d95780601f106105ae576101008083540402835291602001916105d9565b820191906000526020600020905b8154815290600101906020018083116105bc57829003601f168201915b5050505050905090565b60006105ee82611ad6565b6004600083815260200190815260200160002060009054906101000a900473ffffffffffffffffffffffffffffffffffffffff169050919050565b600061063482610ab6565b90508073ffffffffffffffffffffffffffffffffffffffff168373ffffffffffffffffffffffffffffffffffffffff16036106a4576040517f08c379a000000000000000000000000000000000000000000000000000000000815260040161069b90613558565b60405180910390fd5b8073ffffffffffffffffffffffffffffffffffffffff166106c3611b21565b73ffffffffffffffffffffffffffffffffffffffff1614806106f257506106f1816106ec611b21565b611960565b5b610731576040517f08c379a0000000000000000000000000000000000000000000000000000000008152600401610728906135ea565b60405180910390fd5b61073b8383611b29565b505050565b6000600954905090565b61075b610755611b21565b82611be2565b61079a576040517f08c379a00000000000000000000000000000000000000000000000000000000081526004016107919061367c565b60405180910390fd5b6107a5838383611c77565b505050565b6107c58383836040518060200160405280600081525061106f565b505050565b606060006107d86007611f70565b905060008060005b83811015610880573373ffffffffffffffffffffffffffffffffffffffff16600b600060018461081091906136cb565b815260200190815260200160002060010160009054906101000a900473ffffffffffffffffffffffffffffffffffffffff1673ffffffffffffffffffffffffffffffffffffffff160361086d5760018361086a91906136cb565b92505b8080610878906136ff565b9150506107e0565b5060008267ffffffffffffffff81111561089d5761089c6130ef565b5b6040519080825280602002602001820160405280156108d657816020015b6108c3612bba565b8152602001906001900390816108bb5790505b50905060005b84811015610aab573373ffffffffffffffffffffffffffffffffffffffff16600b600060018461090c91906136cb565b815260200190815260200160002060010160009054906101000a900473ffffffffffffffffffffffffffffffffffffffff1673ffffffffffffffffffffffffffffffffffffffff1603610a9857600060018261096891906136cb565b90506000600b60008381526020019081526020016000209050806040518060a0016040529081600082015481526020016001820160009054906101000a900473ffffffffffffffffffffffffffffffffffffffff1673ffffffffffffffffffffffffffffffffffffffff1673ffffffffffffffffffffffffffffffffffffffff1681526020016002820160009054906101000a900473ffffffffffffffffffffffffffffffffffffffff1673ffffffffffffffffffffffffffffffffffffffff1673ffffffffffffffffffffffffffffffffffffffff168152602001600382015481526020016004820160009054906101000a900460ff161515151581525050848681518110610a7b57610a7a613747565b5b6020026020010181905250600185610a9391906136cb565b945050505b8080610aa3906136ff565b9150506108dc565b508094505050505090565b600080610ac283611f7e565b9050600073ffffffffffffffffffffffffffffffffffffffff168173ffffffffffffffffffffffffffffffffffffffff1603610b33576040517f08c379a0000000000000000000000000000000000000000000000000000000008152600401610b2a906137c2565b60405180910390fd5b80915050919050565b60008073ffffffffffffffffffffffffffffffffffffffff168273ffffffffffffffffffffffffffffffffffffffff1603610bac576040517f08c379a0000000000000000000000000000000000000000000000000000000008152600401610ba390613854565b60405180910390fd5b600360008373ffffffffffffffffffffffffffffffffffffffff1673ffffffffffffffffffffffffffffffffffffffff168152602001908152602001600020549050919050565b6000610bff6007611fbb565b6000610c0b6007611f70565b9050610c173382611fd1565b610c2181856121ee565b610c2b8184612292565b8091505092915050565b60606000610c436007611f70565b90506000610c516008611f70565b610c5b6007611f70565b610c659190613874565b90506000808267ffffffffffffffff811115610c8457610c836130ef565b5b604051908082528060200260200182016040528015610cbd57816020015b610caa612bba565b815260200190600190039081610ca25790505b50905060005b84811015610e92573073ffffffffffffffffffffffffffffffffffffffff16600b6000600184610cf391906136cb565b815260200190815260200160002060020160009054906101000a900473ffffffffffffffffffffffffffffffffffffffff1673ffffffffffffffffffffffffffffffffffffffff1603610e7f576000600182610d4f91906136cb565b90506000600b60008381526020019081526020016000209050806040518060a0016040529081600082015481526020016001820160009054906101000a900473ffffffffffffffffffffffffffffffffffffffff1673ffffffffffffffffffffffffffffffffffffffff1673ffffffffffffffffffffffffffffffffffffffff1681526020016002820160009054906101000a900473ffffffffffffffffffffffffffffffffffffffff1673ffffffffffffffffffffffffffffffffffffffff1673ffffffffffffffffffffffffffffffffffffffff168152602001600382015481526020016004820160009054906101000a900460ff161515151581525050848681518110610e6257610e61613747565b5b6020026020010181905250600185610e7a91906136cb565b945050505b8080610e8a906136ff565b915050610cc3565b508094505050505090565b606060018054610eac906134b5565b80601f0160208091040260200160405190810160405280929190818152602001828054610ed8906134b5565b8015610f255780601f10610efa57610100808354040283529160200191610f25565b820191906000526020600020905b815481529060010190602001808311610f0857829003601f168201915b5050505050905090565b610f41610f3a611b21565b8383612495565b5050565b600a60009054906101000a900473ffffffffffffffffffffffffffffffffffffffff1673ffffffffffffffffffffffffffffffffffffffff163373ffffffffffffffffffffffffffffffffffffffff1614610fd5576040517f08c379a0000000000000000000000000000000000000000000000000000000008152600401610fcc9061391a565b60405180910390fd5b3373ffffffffffffffffffffffffffffffffffffffff16600a60009054906101000a900473ffffffffffffffffffffffffffffffffffffffff1673ffffffffffffffffffffffffffffffffffffffff1614611065576040517f08c379a000000000000000000000000000000000000000000000000000000000815260040161105c906139ac565b60405180910390fd5b8060098190555050565b61108061107a611b21565b83611be2565b6110bf576040517f08c379a00000000000000000000000000000000000000000000000000000000081526004016110b69061367c565b60405180910390fd5b6110cb84848484612601565b50505050565b6000600b600083815260200190815260200160002060030154905080341461112e576040517f08c379a000000000000000000000000000000000000000000000000000000000815260040161112590613a3e565b60405180910390fd5b600b600083815260200190815260200160002060040160009054906101000a900460ff1615611192576040517f08c379a000000000000000000000000000000000000000000000000000000000815260040161118990613aaa565b60405180910390fd5b33600b600084815260200190815260200160002060020160006101000a81548173ffffffffffffffffffffffffffffffffffffffff021916908373ffffffffffffffffffffffffffffffffffffffff1602179055506001600b600084815260200190815260200160002060040160006101000a81548160ff0219169083151502179055506000600b600084815260200190815260200160002060020160006101000a81548173ffffffffffffffffffffffffffffffffffffffff021916908373ffffffffffffffffffffffffffffffffffffffff1602179055506112766008611fbb565b611281303384611c77565b600a60009054906101000a900473ffffffffffffffffffffffffffffffffffffffff1673ffffffffffffffffffffffffffffffffffffffff166108fc6009549081150290604051600060405180830381858888f193505050501580156112eb573d6000803e3d6000fd5b50600b600083815260200190815260200160002060010160009054906101000a900473ffffffffffffffffffffffffffffffffffffffff1673ffffffffffffffffffffffffffffffffffffffff166108fc349081150290604051600060405180830381858888f19350505050158015611368573d6000803e3d6000fd5b505050565b6060600061137b6007611f70565b905060008060005b83811015611423573373ffffffffffffffffffffffffffffffffffffffff16600b60006001846113b391906136cb565b815260200190815260200160002060020160009054906101000a900473ffffffffffffffffffffffffffffffffffffffff1673ffffffffffffffffffffffffffffffffffffffff16036114105760018361140d91906136cb565b92505b808061141b906136ff565b915050611383565b5060008267ffffffffffffffff8111156114405761143f6130ef565b5b60405190808252806020026020018201604052801561147957816020015b611466612bba565b81526020019060019003908161145e5790505b50905060005b8481101561164e573373ffffffffffffffffffffffffffffffffffffffff16600b60006001846114af91906136cb565b815260200190815260200160002060020160009054906101000a900473ffffffffffffffffffffffffffffffffffffffff1673ffffffffffffffffffffffffffffffffffffffff160361163b57600060018261150b91906136cb565b90506000600b60008381526020019081526020016000209050806040518060a0016040529081600082015481526020016001820160009054906101000a900473ffffffffffffffffffffffffffffffffffffffff1673ffffffffffffffffffffffffffffffffffffffff1673ffffffffffffffffffffffffffffffffffffffff1681526020016002820160009054906101000a900473ffffffffffffffffffffffffffffffffffffffff1673ffffffffffffffffffffffffffffffffffffffff1673ffffffffffffffffffffffffffffffffffffffff168152602001600382015481526020016004820160009054906101000a900460ff16151515158152505084868151811061161e5761161d613747565b5b602002602001018190525060018561163691906136cb565b945050505b8080611646906136ff565b91505061147f565b508094505050505090565b606061166482611ad6565b6000600660008481526020019081526020016000208054611684906134b5565b80601f01602080910402602001604051908101604052809291908181526020018280546116b0906134b5565b80156116fd5780601f106116d2576101008083540402835291602001916116fd565b820191906000526020600020905b8154815290600101906020018083116116e057829003601f168201915b50505050509050600061170e61265d565b90506000815103611723578192505050611766565b600082511115611758578082604051602001611740929190613b06565b60405160208183030381529060405292505050611766565b61176184612674565b925050505b919050565b3373ffffffffffffffffffffffffffffffffffffffff16600b600084815260200190815260200160002060020160009054906101000a900473ffffffffffffffffffffffffffffffffffffffff1673ffffffffffffffffffffffffffffffffffffffff161461180f576040517f08c379a000000000000000000000000000000000000000000000000000000000815260040161180690613b9c565b60405180910390fd5b6009543414611853576040517f08c379a000000000000000000000000000000000000000000000000000000000815260040161184a90613c2e565b60405180910390fd5b6000600b600084815260200190815260200160002060040160006101000a81548160ff02191690831515021790555080600b60008481526020019081526020016000206003018190555033600b600084815260200190815260200160002060010160006101000a81548173ffffffffffffffffffffffffffffffffffffffff021916908373ffffffffffffffffffffffffffffffffffffffff16021790555030600b600084815260200190815260200160002060020160006101000a81548173ffffffffffffffffffffffffffffffffffffffff021916908373ffffffffffffffffffffffffffffffffffffffff16021790555061195160086126dc565b61195c333084611c77565b5050565b6000600560008473ffffffffffffffffffffffffffffffffffffffff1673ffffffffffffffffffffffffffffffffffffffff16815260200190815260200160002060008373ffffffffffffffffffffffffffffffffffffffff1673ffffffffffffffffffffffffffffffffffffffff16815260200190815260200160002060009054906101000a900460ff16905092915050565b60007f80ac58cd000000000000000000000000000000000000000000000000000000007bffffffffffffffffffffffffffffffffffffffffffffffffffffffff1916827bffffffffffffffffffffffffffffffffffffffffffffffffffffffff19161480611abf57507f5b5e139f000000000000000000000000000000000000000000000000000000007bffffffffffffffffffffffffffffffffffffffffffffffffffffffff1916827bffffffffffffffffffffffffffffffffffffffffffffffffffffffff1916145b80611acf5750611ace82612738565b5b9050919050565b611adf816127a2565b611b1e576040517f08c379a0000000000000000000000000000000000000000000000000000000008152600401611b15906137c2565b60405180910390fd5b50565b600033905090565b816004600083815260200190815260200160002060006101000a81548173ffffffffffffffffffffffffffffffffffffffff021916908373ffffffffffffffffffffffffffffffffffffffff160217905550808273ffffffffffffffffffffffffffffffffffffffff16611b9c83610ab6565b73ffffffffffffffffffffffffffffffffffffffff167f8c5be1e5ebec7d5bd14f71427d1e84f3dd0314c0f7b2291e5b200ac8c7c3b92560405160405180910390a45050565b600080611bee83610ab6565b90508073ffffffffffffffffffffffffffffffffffffffff168473ffffffffffffffffffffffffffffffffffffffff161480611c305750611c2f8185611960565b5b80611c6e57508373ffffffffffffffffffffffffffffffffffffffff16611c56846105e3565b73ffffffffffffffffffffffffffffffffffffffff16145b91505092915050565b8273ffffffffffffffffffffffffffffffffffffffff16611c9782610ab6565b73ffffffffffffffffffffffffffffffffffffffff1614611ced576040517f08c379a0000000000000000000000000000000000000000000000000000000008152600401611ce490613cc0565b60405180910390fd5b600073ffffffffffffffffffffffffffffffffffffffff168273ffffffffffffffffffffffffffffffffffffffff1603611d5c576040517f08c379a0000000000000000000000000000000000000000000000000000000008152600401611d5390613d52565b60405180910390fd5b611d6983838360016127e3565b8273ffffffffffffffffffffffffffffffffffffffff16611d8982610ab6565b73ffffffffffffffffffffffffffffffffffffffff1614611ddf576040517f08c379a0000000000000000000000000000000000000000000000000000000008152600401611dd690613cc0565b60405180910390fd5b6004600082815260200190815260200160002060006101000a81549073ffffffffffffffffffffffffffffffffffffffff02191690556001600360008573ffffffffffffffffffffffffffffffffffffffff1673ffffffffffffffffffffffffffffffffffffffff168152602001908152602001600020600082825403925050819055506001600360008473ffffffffffffffffffffffffffffffffffffffff1673ffffffffffffffffffffffffffffffffffffffff16815260200190815260200160002060008282540192505081905550816002600083815260200190815260200160002060006101000a81548173ffffffffffffffffffffffffffffffffffffffff021916908373ffffffffffffffffffffffffffffffffffffffff160217905550808273ffffffffffffffffffffffffffffffffffffffff168473ffffffffffffffffffffffffffffffffffffffff167fddf252ad1be2c89b69c2b068fc378daa952ba7f163c4a11628f55a4df523b3ef60405160405180910390a4611f6b83838360016127e9565b505050565b600081600001549050919050565b60006002600083815260200190815260200160002060009054906101000a900473ffffffffffffffffffffffffffffffffffffffff169050919050565b6001816000016000828254019250508190555050565b600073ffffffffffffffffffffffffffffffffffffffff168273ffffffffffffffffffffffffffffffffffffffff1603612040576040517f08c379a000000000000000000000000000000000000000000000000000000000815260040161203790613dbe565b60405180910390fd5b612049816127a2565b15612089576040517f08c379a000000000000000000000000000000000000000000000000000000000815260040161208090613e2a565b60405180910390fd5b6120976000838360016127e3565b6120a0816127a2565b156120e0576040517f08c379a00000000000000000000000000000000000000000000000000000000081526004016120d790613e2a565b60405180910390fd5b6001600360008473ffffffffffffffffffffffffffffffffffffffff1673ffffffffffffffffffffffffffffffffffffffff16815260200190815260200160002060008282540192505081905550816002600083815260200190815260200160002060006101000a81548173ffffffffffffffffffffffffffffffffffffffff021916908373ffffffffffffffffffffffffffffffffffffffff160217905550808273ffffffffffffffffffffffffffffffffffffffff16600073ffffffffffffffffffffffffffffffffffffffff167fddf252ad1be2c89b69c2b068fc378daa952ba7f163c4a11628f55a4df523b3ef60405160405180910390a46121ea6000838360016127e9565b5050565b6121f7826127a2565b612236576040517f08c379a000000000000000000000000000000000000000000000000000000000815260040161222d90613ebc565b60405180910390fd5b806006600084815260200190815260200160002090816122569190614088565b507ff8e1a15aba9398e019f0b49df1a4fde98ee17ae345cb5f6b5e2c27f5033e8ce7826040516122869190612ed2565b60405180910390a15050565b600181116122d5576040517f08c379a00000000000000000000000000000000000000000000000000000000081526004016122cc906141a6565b60405180910390fd5b6009543414612319576040517f08c379a000000000000000000000000000000000000000000000000000000000815260040161231090613c2e565b60405180910390fd5b6040518060a001604052808381526020013373ffffffffffffffffffffffffffffffffffffffff1681526020013073ffffffffffffffffffffffffffffffffffffffff16815260200182815260200160001515815250600b60008481526020019081526020016000206000820151816000015560208201518160010160006101000a81548173ffffffffffffffffffffffffffffffffffffffff021916908373ffffffffffffffffffffffffffffffffffffffff16021790555060408201518160020160006101000a81548173ffffffffffffffffffffffffffffffffffffffff021916908373ffffffffffffffffffffffffffffffffffffffff1602179055506060820151816003015560808201518160040160006101000a81548160ff021916908315150217905550905050612452333084611c77565b817fdebdb32cb5230ab727c9c361b16fdb2015df225c10e6a3e7f60ecd5dc5be4516333084600060405161248994939291906141c6565b60405180910390a25050565b8173ffffffffffffffffffffffffffffffffffffffff168373ffffffffffffffffffffffffffffffffffffffff1603612503576040517f08c379a00000000000000000000000000000000000000000000000000000000081526004016124fa90614257565b60405180910390fd5b80600560008573ffffffffffffffffffffffffffffffffffffffff1673ffffffffffffffffffffffffffffffffffffffff16815260200190815260200160002060008473ffffffffffffffffffffffffffffffffffffffff1673ffffffffffffffffffffffffffffffffffffffff16815260200190815260200160002060006101000a81548160ff0219169083151502179055508173ffffffffffffffffffffffffffffffffffffffff168373ffffffffffffffffffffffffffffffffffffffff167f17307eab39ab6107e8899845ad3d59bd9653f200f220920489ca2b5937696c31836040516125f49190612ccb565b60405180910390a3505050565b61260c848484611c77565b612618848484846127ef565b612657576040517f08c379a000000000000000000000000000000000000000000000000000000000815260040161264e906142e9565b60405180910390fd5b50505050565b606060405180602001604052806000815250905090565b606061267f82611ad6565b600061268961265d565b905060008151116126a957604051806020016040528060008152506126d4565b806126b384612976565b6040516020016126c4929190613b06565b6040516020818303038152906040525b915050919050565b60008160000154905060008111612728576040517f08c379a000000000000000000000000000000000000000000000000000000000815260040161271f90614355565b60405180910390fd5b6001810382600001819055505050565b60007f01ffc9a7000000000000000000000000000000000000000000000000000000007bffffffffffffffffffffffffffffffffffffffffffffffffffffffff1916827bffffffffffffffffffffffffffffffffffffffffffffffffffffffff1916149050919050565b60008073ffffffffffffffffffffffffffffffffffffffff166127c483611f7e565b73ffffffffffffffffffffffffffffffffffffffff1614159050919050565b50505050565b50505050565b60006128108473ffffffffffffffffffffffffffffffffffffffff16612a44565b15612969578373ffffffffffffffffffffffffffffffffffffffff1663150b7a02612839611b21565b8786866040518563ffffffff1660e01b815260040161285b94939291906143ca565b6020604051808303816000875af192505050801561289757506040513d601f19601f82011682018060405250810190612894919061442b565b60015b612919573d80600081146128c7576040519150601f19603f3d011682016040523d82523d6000602084013e6128cc565b606091505b506000815103612911576040517f08c379a0000000000000000000000000000000000000000000000000000000008152600401612908906142e9565b60405180910390fd5b805181602001fd5b63150b7a0260e01b7bffffffffffffffffffffffffffffffffffffffffffffffffffffffff1916817bffffffffffffffffffffffffffffffffffffffffffffffffffffffff19161491505061296e565b600190505b949350505050565b60606000600161298584612a67565b01905060008167ffffffffffffffff8111156129a4576129a36130ef565b5b6040519080825280601f01601f1916602001820160405280156129d65781602001600182028036833780820191505090505b509050600082602001820190505b600115612a39578080600190039150507f3031323334353637383961626364656600000000000000000000000000000000600a86061a8153600a8581612a2d57612a2c614458565b5b049450600085036129e4575b819350505050919050565b6000808273ffffffffffffffffffffffffffffffffffffffff163b119050919050565b600080600090507a184f03e93ff9f4daa797ed6e38ed64bf6a1f0100000000000000008310612ac5577a184f03e93ff9f4daa797ed6e38ed64bf6a1f0100000000000000008381612abb57612aba614458565b5b0492506040810190505b6d04ee2d6d415b85acef81000000008310612b02576d04ee2d6d415b85acef81000000008381612af857612af7614458565b5b0492506020810190505b662386f26fc100008310612b3157662386f26fc100008381612b2757612b26614458565b5b0492506010810190505b6305f5e1008310612b5a576305f5e1008381612b5057612b4f614458565b5b0492506008810190505b6127108310612b7f576127108381612b7557612b74614458565b5b0492506004810190505b60648310612ba25760648381612b9857612b97614458565b5b0492506002810190505b600a8310612bb1576001810190505b80915050919050565b6040518060a0016040528060008152602001600073ffffffffffffffffffffffffffffffffffffffff168152602001600073ffffffffffffffffffffffffffffffffffffffff168152602001600081526020016000151581525090565b6000604051905090565b600080fd5b600080fd5b60007fffffffff0000000000000000000000000000000000000000000000000000000082169050919050565b612c6081612c2b565b8114612c6b57600080fd5b50565b600081359050612c7d81612c57565b92915050565b600060208284031215612c9957612c98612c21565b5b6000612ca784828501612c6e565b91505092915050565b60008115159050919050565b612cc581612cb0565b82525050565b6000602082019050612ce06000830184612cbc565b92915050565b600081519050919050565b600082825260208201905092915050565b60005b83811015612d20578082015181840152602081019050612d05565b60008484015250505050565b6000601f19601f8301169050919050565b6000612d4882612ce6565b612d528185612cf1565b9350612d62818560208601612d02565b612d6b81612d2c565b840191505092915050565b60006020820190508181036000830152612d908184612d3d565b905092915050565b6000819050919050565b612dab81612d98565b8114612db657600080fd5b50565b600081359050612dc881612da2565b92915050565b600060208284031215612de457612de3612c21565b5b6000612df284828501612db9565b91505092915050565b600073ffffffffffffffffffffffffffffffffffffffff82169050919050565b6000612e2682612dfb565b9050919050565b612e3681612e1b565b82525050565b6000602082019050612e516000830184612e2d565b92915050565b612e6081612e1b565b8114612e6b57600080fd5b50565b600081359050612e7d81612e57565b92915050565b60008060408385031215612e9a57612e99612c21565b5b6000612ea885828601612e6e565b9250506020612eb985828601612db9565b9150509250929050565b612ecc81612d98565b82525050565b6000602082019050612ee76000830184612ec3565b92915050565b600080600060608486031215612f0657612f05612c21565b5b6000612f1486828701612e6e565b9350506020612f2586828701612e6e565b9250506040612f3686828701612db9565b9150509250925092565b600081519050919050565b600082825260208201905092915050565b6000819050602082019050919050565b612f7581612d98565b82525050565b6000612f8682612dfb565b9050919050565b612f9681612f7b565b82525050565b612fa581612cb0565b82525050565b60a082016000820151612fc16000850182612f6c565b506020820151612fd46020850182612f8d565b506040820151612fe76040850182612f8d565b506060820151612ffa6060850182612f6c565b50608082015161300d6080850182612f9c565b50505050565b600061301f8383612fab565b60a08301905092915050565b6000602082019050919050565b600061304382612f40565b61304d8185612f4b565b935061305883612f5c565b8060005b838110156130895781516130708882613013565b975061307b8361302b565b92505060018101905061305c565b5085935050505092915050565b600060208201905081810360008301526130b08184613038565b905092915050565b6000602082840312156130ce576130cd612c21565b5b60006130dc84828501612e6e565b91505092915050565b600080fd5b600080fd5b7f4e487b7100000000000000000000000000000000000000000000000000000000600052604160045260246000fd5b61312782612d2c565b810181811067ffffffffffffffff82111715613146576131456130ef565b5b80604052505050565b6000613159612c17565b9050613165828261311e565b919050565b600067ffffffffffffffff821115613185576131846130ef565b5b61318e82612d2c565b9050602081019050919050565b82818337600083830152505050565b60006131bd6131b88461316a565b61314f565b9050828152602081018484840111156131d9576131d86130ea565b5b6131e484828561319b565b509392505050565b600082601f830112613201576132006130e5565b5b81356132118482602086016131aa565b91505092915050565b6000806040838503121561323157613230612c21565b5b600083013567ffffffffffffffff81111561324f5761324e612c26565b5b61325b858286016131ec565b925050602061326c85828601612db9565b9150509250929050565b61327f81612cb0565b811461328a57600080fd5b50565b60008135905061329c81613276565b92915050565b600080604083850312156132b9576132b8612c21565b5b60006132c785828601612e6e565b92505060206132d88582860161328d565b9150509250929050565b600067ffffffffffffffff8211156132fd576132fc6130ef565b5b61330682612d2c565b9050602081019050919050565b6000613326613321846132e2565b61314f565b905082815260208101848484011115613342576133416130ea565b5b61334d84828561319b565b509392505050565b600082601f83011261336a576133696130e5565b5b813561337a848260208601613313565b91505092915050565b6000806000806080858703121561339d5761339c612c21565b5b60006133ab87828801612e6e565b94505060206133bc87828801612e6e565b93505060406133cd87828801612db9565b925050606085013567ffffffffffffffff8111156133ee576133ed612c26565b5b6133fa87828801613355565b91505092959194509250565b6000806040838503121561341d5761341c612c21565b5b600061342b85828601612db9565b925050602061343c85828601612db9565b9150509250929050565b6000806040838503121561345d5761345c612c21565b5b600061346b85828601612e6e565b925050602061347c85828601612e6e565b9150509250929050565b7f4e487b7100000000000000000000000000000000000000000000000000000000600052602260045260246000fd5b600060028204905060018216806134cd57607f821691505b6020821081036134e0576134df613486565b5b50919050565b7f4552433732313a20617070726f76616c20746f2063757272656e74206f776e6560008201527f7200000000000000000000000000000000000000000000000000000000000000602082015250565b6000613542602183612cf1565b915061354d826134e6565b604082019050919050565b6000602082019050818103600083015261357181613535565b9050919050565b7f4552433732313a20617070726f76652063616c6c6572206973206e6f7420746f60008201527f6b656e206f776e6572206f7220617070726f76656420666f7220616c6c000000602082015250565b60006135d4603d83612cf1565b91506135df82613578565b604082019050919050565b60006020820190508181036000830152613603816135c7565b9050919050565b7f4552433732313a2063616c6c6572206973206e6f7420746f6b656e206f776e6560008201527f72206f7220617070726f76656400000000000000000000000000000000000000602082015250565b6000613666602d83612cf1565b91506136718261360a565b604082019050919050565b6000602082019050818103600083015261369581613659565b9050919050565b7f4e487b7100000000000000000000000000000000000000000000000000000000600052601160045260246000fd5b60006136d682612d98565b91506136e183612d98565b92508282019050808211156136f9576136f861369c565b5b92915050565b600061370a82612d98565b91507fffffffffffffffffffffffffffffffffffffffffffffffffffffffffffffffff820361373c5761373b61369c565b5b600182019050919050565b7f4e487b7100000000000000000000000000000000000000000000000000000000600052603260045260246000fd5b7f4552433732313a20696e76616c696420746f6b656e2049440000000000000000600082015250565b60006137ac601883612cf1565b91506137b782613776565b602082019050919050565b600060208201905081810360008301526137db8161379f565b9050919050565b7f4552433732313a2061646472657373207a65726f206973206e6f74206120766160008201527f6c6964206f776e65720000000000000000000000000000000000000000000000602082015250565b600061383e602983612cf1565b9150613849826137e2565b604082019050919050565b6000602082019050818103600083015261386d81613831565b9050919050565b600061387f82612d98565b915061388a83612d98565b92508282039050818111156138a2576138a161369c565b5b92915050565b7f4f6e6c7920746865206f776e6572206f6620746865206d61726b6574706c616360008201527f652063616e206368616e676520746865206c697374696e672070726963650000602082015250565b6000613904603e83612cf1565b915061390f826138a8565b604082019050919050565b60006020820190508181036000830152613933816138f7565b9050919050565b7f4f6e6c79206d61726b6574706c616365206f776e65722063616e20757064617460008201527f6520746865206c697374696e672070726963652e000000000000000000000000602082015250565b6000613996603483612cf1565b91506139a18261393a565b604082019050919050565b600060208201905081810360008301526139c581613989565b9050919050565b7f506c65617365207375626d6974207468652061736b696e67207072696365206960008201527f6e206f7264657220746f20636f6d706c65746520746865207075726368617365602082015250565b6000613a28604083612cf1565b9150613a33826139cc565b604082019050919050565b60006020820190508181036000830152613a5781613a1b565b9050919050565b7f4974656d2068617320616c7265616479206265656e20736f6c64000000000000600082015250565b6000613a94601a83612cf1565b9150613a9f82613a5e565b602082019050919050565b60006020820190508181036000830152613ac381613a87565b9050919050565b600081905092915050565b6000613ae082612ce6565b613aea8185613aca565b9350613afa818560208601612d02565b80840191505092915050565b6000613b128285613ad5565b9150613b1e8284613ad5565b91508190509392505050565b7f4f6e6c79206974656d206f776e65722063616e20706572666f726d207468697360008201527f206f7065726174696f6e00000000000000000000000000000000000000000000602082015250565b6000613b86602a83612cf1565b9150613b9182613b2a565b604082019050919050565b60006020820190508181036000830152613bb581613b79565b9050919050565b7f5072696365206d75737420626520657175616c20746f206c697374696e67207060008201527f7269636500000000000000000000000000000000000000000000000000000000602082015250565b6000613c18602483612cf1565b9150613c2382613bbc565b604082019050919050565b60006020820190508181036000830152613c4781613c0b565b9050919050565b7f4552433732313a207472616e736665722066726f6d20696e636f72726563742060008201527f6f776e6572000000000000000000000000000000000000000000000000000000602082015250565b6000613caa602583612cf1565b9150613cb582613c4e565b604082019050919050565b60006020820190508181036000830152613cd981613c9d565b9050919050565b7f4552433732313a207472616e7366657220746f20746865207a65726f2061646460008201527f7265737300000000000000000000000000000000000000000000000000000000602082015250565b6000613d3c602483612cf1565b9150613d4782613ce0565b604082019050919050565b60006020820190508181036000830152613d6b81613d2f565b9050919050565b7f4552433732313a206d696e7420746f20746865207a65726f2061646472657373600082015250565b6000613da8602083612cf1565b9150613db382613d72565b602082019050919050565b60006020820190508181036000830152613dd781613d9b565b9050919050565b7f4552433732313a20746f6b656e20616c7265616479206d696e74656400000000600082015250565b6000613e14601c83612cf1565b9150613e1f82613dde565b602082019050919050565b60006020820190508181036000830152613e4381613e07565b9050919050565b7f45524337323155524953746f726167653a2055524920736574206f66206e6f6e60008201527f6578697374656e7420746f6b656e000000000000000000000000000000000000602082015250565b6000613ea6602e83612cf1565b9150613eb182613e4a565b604082019050919050565b60006020820190508181036000830152613ed581613e99565b9050919050565b60008190508160005260206000209050919050565b60006020601f8301049050919050565b600082821b905092915050565b600060088302613f3e7fffffffffffffffffffffffffffffffffffffffffffffffffffffffffffffffff82613f01565b613f488683613f01565b95508019841693508086168417925050509392505050565b6000819050919050565b6000613f85613f80613f7b84612d98565b613f60565b612d98565b9050919050565b6000819050919050565b613f9f83613f6a565b613fb3613fab82613f8c565b848454613f0e565b825550505050565b600090565b613fc8613fbb565b613fd3818484613f96565b505050565b5b81811015613ff757613fec600082613fc0565b600181019050613fd9565b5050565b601f82111561403c5761400d81613edc565b61401684613ef1565b81016020851015614025578190505b61403961403185613ef1565b830182613fd8565b50505b505050565b600082821c905092915050565b600061405f60001984600802614041565b1980831691505092915050565b6000614078838361404e565b9150826002028217905092915050565b61409182612ce6565b67ffffffffffffffff8111156140aa576140a96130ef565b5b6140b482546134b5565b6140bf828285613ffb565b600060209050601f8311600181146140f257600084156140e0578287015190505b6140ea858261406c565b865550614152565b601f19841661410086613edc565b60005b8281101561412857848901518255600182019150602085019450602081019050614103565b868310156141455784890151614141601f89168261404e565b8355505b6001600288020188555050505b505050505050565b7f5072696365206d757374206265206174206c6561737420310000000000000000600082015250565b6000614190601883612cf1565b915061419b8261415a565b602082019050919050565b600060208201905081810360008301526141bf81614183565b9050919050565b60006080820190506141db6000830187612e2d565b6141e86020830186612e2d565b6141f56040830185612ec3565b6142026060830184612cbc565b95945050505050565b7f4552433732313a20617070726f766520746f2063616c6c657200000000000000600082015250565b6000614241601983612cf1565b915061424c8261420b565b602082019050919050565b6000602082019050818103600083015261427081614234565b9050919050565b7f4552433732313a207472616e7366657220746f206e6f6e20455243373231526560008201527f63656976657220696d706c656d656e7465720000000000000000000000000000602082015250565b60006142d3603283612cf1565b91506142de82614277565b604082019050919050565b60006020820190508181036000830152614302816142c6565b9050919050565b7f436f756e7465723a2064656372656d656e74206f766572666c6f770000000000600082015250565b600061433f601b83612cf1565b915061434a82614309565b602082019050919050565b6000602082019050818103600083015261436e81614332565b9050919050565b600081519050919050565b600082825260208201905092915050565b600061439c82614375565b6143a68185614380565b93506143b6818560208601612d02565b6143bf81612d2c565b840191505092915050565b60006080820190506143df6000830187612e2d565b6143ec6020830186612e2d565b6143f96040830185612ec3565b818103606083015261440b8184614391565b905095945050505050565b60008151905061442581612c57565b92915050565b60006020828403121561444157614440612c21565b5b600061444f84828501614416565b91505092915050565b7f4e487b7100000000000000000000000000000000000000000000000000000000600052601260045260246000fdfea2646970667358221220cfe80a0e8231bca1b9355397da4d93be7cd6e9e3d1a9f37313edb091348f83b264736f6c63430008130033",
  "linkReferences": {},
  "deployedLinkReferences": {}
}