{
  "_format": "hh-sol-artifact-1",
  "contractName": "NFTMarketplace",
  "sourceName": "contracts/NFTMarketplace.sol",
  "abi": [
    {
      "inputs": [],
      "stateMutability": "nonpayable",
      "type": "constructor"
    },
    {
      "anonymous": false,
      "inputs": [
        {
          "indexed": true,
          "internalType": "address",
          "name": "owner",
          "type": "address"
        },
        {
          "indexed": true,
          "internalType": "address",
          "name": "approved",
          "type": "address"
        },
        {
          "indexed": true,
          "internalType": "uint256",
          "name": "tokenId",
          "type": "uint256"
        }
      ],
      "name": "Approval",
      "type": "event"
    },
    {
      "anonymous": false,
      "inputs": [
        {
          "indexed": true,
          "internalType": "address",
          "name": "owner",
          "type": "address"
        },
        {
          "indexed": true,
          "internalType": "address",
          "name": "operator",
          "type": "address"
        },
        {
          "indexed": false,
          "internalType": "bool",
          "name": "approved",
          "type": "bool"
        }
      ],
      "name": "ApprovalForAll",
      "type": "event"
    },
    {
      "anonymous": false,
      "inputs": [
        {
          "indexed": false,
          "internalType": "uint256",
          "name": "_fromTokenId",
          "type": "uint256"
        },
        {
          "indexed": false,
          "internalType": "uint256",
          "name": "_toTokenId",
          "type": "uint256"
        }
      ],
      "name": "BatchMetadataUpdate",
      "type": "event"
    },
    {
      "anonymous": false,
      "inputs": [
        {
          "indexed": false,
          "internalType": "uint256",
          "name": "nonce",
          "type": "uint256"
        },
        {
          "indexed": false,
          "internalType": "bytes",
          "name": "bytecode",
          "type": "bytes"
        },
        {
          "indexed": false,
          "internalType": "address",
          "name": "collection_address",
          "type": "address"
        }
      ],
      "name": "CollectionCreated",
      "type": "event"
    },
    {
      "anonymous": false,
      "inputs": [
        {
          "indexed": true,
          "internalType": "uint256",
          "name": "tokenId",
          "type": "uint256"
        },
        {
          "indexed": false,
          "internalType": "address",
          "name": "creator",
          "type": "address"
        },
        {
          "indexed": false,
          "internalType": "address",
          "name": "seller",
          "type": "address"
        },
        {
          "indexed": false,
          "internalType": "address",
          "name": "owner",
          "type": "address"
        },
        {
          "indexed": false,
          "internalType": "uint256",
          "name": "price",
          "type": "uint256"
        },
        {
          "indexed": false,
          "internalType": "bool",
          "name": "sold",
          "type": "bool"
        }
      ],
      "name": "MarketItemCreated",
      "type": "event"
    },
    {
      "anonymous": false,
      "inputs": [
        {
          "indexed": false,
          "internalType": "uint256",
          "name": "_tokenId",
          "type": "uint256"
        }
      ],
      "name": "MetadataUpdate",
      "type": "event"
    },
    {
      "anonymous": false,
      "inputs": [
        {
          "indexed": true,
          "internalType": "address",
          "name": "from",
          "type": "address"
        },
        {
          "indexed": true,
          "internalType": "address",
          "name": "to",
          "type": "address"
        },
        {
          "indexed": true,
          "internalType": "uint256",
          "name": "tokenId",
          "type": "uint256"
        }
      ],
      "name": "Transfer",
      "type": "event"
    },
    {
      "inputs": [],
      "name": "BURN_ADDRESS",
      "outputs": [
        {
          "internalType": "address",
          "name": "",
          "type": "address"
        }
      ],
      "stateMutability": "view",
      "type": "function"
    },
    {
      "inputs": [],
      "name": "PACO_TOKEN_ADDRESS",
      "outputs": [
        {
          "internalType": "address",
          "name": "",
          "type": "address"
        }
      ],
      "stateMutability": "view",
      "type": "function"
    },
    {
      "inputs": [],
      "name": "ROUTER_ADDRESS",
      "outputs": [
        {
          "internalType": "address",
          "name": "",
          "type": "address"
        }
      ],
      "stateMutability": "view",
      "type": "function"
    },
    {
      "inputs": [],
      "name": "WPLS",
      "outputs": [
        {
          "internalType": "address",
          "name": "",
          "type": "address"
        }
      ],
      "stateMutability": "view",
      "type": "function"
    },
    {
      "inputs": [
        {
          "internalType": "address",
          "name": "to",
          "type": "address"
        },
        {
          "internalType": "uint256",
          "name": "tokenId",
          "type": "uint256"
        }
      ],
      "name": "approve",
      "outputs": [],
      "stateMutability": "nonpayable",
      "type": "function"
    },
    {
      "inputs": [
        {
          "internalType": "address",
          "name": "owner",
          "type": "address"
        }
      ],
      "name": "balanceOf",
      "outputs": [
        {
          "internalType": "uint256",
          "name": "",
          "type": "uint256"
        }
      ],
      "stateMutability": "view",
      "type": "function"
    },
    {
      "inputs": [],
      "name": "burnPercentage",
      "outputs": [
        {
          "internalType": "uint256",
          "name": "",
          "type": "uint256"
        }
      ],
      "stateMutability": "view",
      "type": "function"
    },
    {
      "inputs": [
        {
          "internalType": "uint256",
          "name": "",
          "type": "uint256"
        }
      ],
      "name": "collections",
      "outputs": [
        {
          "internalType": "address",
          "name": "creatorAddress",
          "type": "address"
        },
        {
          "internalType": "address",
          "name": "collectionAddress",
          "type": "address"
        },
        {
          "internalType": "string",
          "name": "name",
          "type": "string"
        },
        {
          "internalType": "string",
          "name": "symbol",
          "type": "string"
        },
        {
          "internalType": "string",
          "name": "description",
          "type": "string"
        },
        {
          "internalType": "string",
          "name": "image",
          "type": "string"
        }
      ],
      "stateMutability": "view",
      "type": "function"
    },
    {
      "inputs": [
        {
          "internalType": "string",
          "name": "name",
          "type": "string"
        },
        {
          "internalType": "string",
          "name": "symbol",
          "type": "string"
        },
        {
          "internalType": "string",
          "name": "description",
          "type": "string"
        },
        {
          "internalType": "string",
          "name": "image",
          "type": "string"
        }
      ],
      "name": "createCollection",
      "outputs": [
        {
          "internalType": "address",
          "name": "collectionAddress",
          "type": "address"
        }
      ],
      "stateMutability": "payable",
      "type": "function"
    },
    {
      "inputs": [
        {
          "internalType": "uint256",
          "name": "tokenId",
          "type": "uint256"
        }
      ],
      "name": "createMarketSale",
      "outputs": [],
      "stateMutability": "payable",
      "type": "function"
    },
    {
      "inputs": [
        {
          "internalType": "string",
          "name": "tokenURI",
          "type": "string"
        },
        {
          "internalType": "uint256",
          "name": "price",
          "type": "uint256"
        }
      ],
      "name": "createToken",
      "outputs": [
        {
          "internalType": "uint256",
          "name": "",
          "type": "uint256"
        },
        {
          "internalType": "address",
          "name": "",
          "type": "address"
        }
      ],
      "stateMutability": "payable",
      "type": "function"
    },
    {
      "inputs": [],
      "name": "creatingCollectionFee",
      "outputs": [
        {
          "internalType": "uint256",
          "name": "",
          "type": "uint256"
        }
      ],
      "stateMutability": "view",
      "type": "function"
    },
    {
      "inputs": [],
      "name": "fetchItemsListed",
      "outputs": [
        {
          "components": [
            {
              "internalType": "uint256",
              "name": "tokenId",
              "type": "uint256"
            },
            {
              "internalType": "address payable",
              "name": "creator",
              "type": "address"
            },
            {
              "internalType": "address payable",
              "name": "seller",
              "type": "address"
            },
            {
              "internalType": "address payable",
              "name": "owner",
              "type": "address"
            },
            {
              "internalType": "uint256",
              "name": "price",
              "type": "uint256"
            },
            {
              "internalType": "bool",
              "name": "sold",
              "type": "bool"
            }
          ],
          "internalType": "struct NFTMarketplace.MarketItem[]",
          "name": "",
          "type": "tuple[]"
        }
      ],
      "stateMutability": "view",
      "type": "function"
    },
    {
      "inputs": [],
      "name": "fetchMarketItems",
      "outputs": [
        {
          "components": [
            {
              "internalType": "uint256",
              "name": "tokenId",
              "type": "uint256"
            },
            {
              "internalType": "address payable",
              "name": "creator",
              "type": "address"
            },
            {
              "internalType": "address payable",
              "name": "seller",
              "type": "address"
            },
            {
              "internalType": "address payable",
              "name": "owner",
              "type": "address"
            },
            {
              "internalType": "uint256",
              "name": "price",
              "type": "uint256"
            },
            {
              "internalType": "bool",
              "name": "sold",
              "type": "bool"
            }
          ],
          "internalType": "struct NFTMarketplace.MarketItem[]",
          "name": "",
          "type": "tuple[]"
        }
      ],
      "stateMutability": "view",
      "type": "function"
    },
    {
      "inputs": [],
      "name": "fetchMyNFTs",
      "outputs": [
        {
          "components": [
            {
              "internalType": "uint256",
              "name": "tokenId",
              "type": "uint256"
            },
            {
              "internalType": "address payable",
              "name": "creator",
              "type": "address"
            },
            {
              "internalType": "address payable",
              "name": "seller",
              "type": "address"
            },
            {
              "internalType": "address payable",
              "name": "owner",
              "type": "address"
            },
            {
              "internalType": "uint256",
              "name": "price",
              "type": "uint256"
            },
            {
              "internalType": "bool",
              "name": "sold",
              "type": "bool"
            }
          ],
          "internalType": "struct NFTMarketplace.MarketItem[]",
          "name": "",
          "type": "tuple[]"
        }
      ],
      "stateMutability": "view",
      "type": "function"
    },
    {
      "inputs": [
        {
          "internalType": "uint256",
          "name": "tokenId",
          "type": "uint256"
        }
      ],
      "name": "getApproved",
      "outputs": [
        {
          "internalType": "address",
          "name": "",
          "type": "address"
        }
      ],
      "stateMutability": "view",
      "type": "function"
    },
    {
      "inputs": [
        {
          "internalType": "address",
          "name": "collectionAddress",
          "type": "address"
        }
      ],
      "name": "getCollectionDetails",
      "outputs": [
        {
          "components": [
            {
              "internalType": "address",
              "name": "creatorAddress",
              "type": "address"
            },
            {
              "internalType": "address",
              "name": "collectionAddress",
              "type": "address"
            },
            {
              "internalType": "string",
              "name": "name",
              "type": "string"
            },
            {
              "internalType": "string",
              "name": "symbol",
              "type": "string"
            },
            {
              "internalType": "string",
              "name": "description",
              "type": "string"
            },
            {
              "internalType": "string",
              "name": "image",
              "type": "string"
            }
          ],
          "internalType": "struct NFTMarketplace.Collection",
          "name": "",
          "type": "tuple"
        }
      ],
      "stateMutability": "view",
      "type": "function"
    },
    {
      "inputs": [],
      "name": "getCollections",
      "outputs": [
        {
          "components": [
            {
              "internalType": "address",
              "name": "creatorAddress",
              "type": "address"
            },
            {
              "internalType": "address",
              "name": "collectionAddress",
              "type": "address"
            },
            {
              "internalType": "string",
              "name": "name",
              "type": "string"
            },
            {
              "internalType": "string",
              "name": "symbol",
              "type": "string"
            },
            {
              "internalType": "string",
              "name": "description",
              "type": "string"
            },
            {
              "internalType": "string",
              "name": "image",
              "type": "string"
            }
          ],
          "internalType": "struct NFTMarketplace.Collection[]",
          "name": "",
          "type": "tuple[]"
        }
      ],
      "stateMutability": "view",
      "type": "function"
    },
    {
      "inputs": [
        {
          "internalType": "address",
          "name": "user",
          "type": "address"
        }
      ],
      "name": "getCollectionsByUser",
      "outputs": [
        {
          "components": [
            {
              "internalType": "address",
              "name": "creatorAddress",
              "type": "address"
            },
            {
              "internalType": "address",
              "name": "collectionAddress",
              "type": "address"
            },
            {
              "internalType": "string",
              "name": "name",
              "type": "string"
            },
            {
              "internalType": "string",
              "name": "symbol",
              "type": "string"
            },
            {
              "internalType": "string",
              "name": "description",
              "type": "string"
            },
            {
              "internalType": "string",
              "name": "image",
              "type": "string"
            }
          ],
          "internalType": "struct NFTMarketplace.Collection[]",
          "name": "",
          "type": "tuple[]"
        }
      ],
      "stateMutability": "view",
      "type": "function"
    },
    {
      "inputs": [
        {
          "internalType": "address",
          "name": "owner",
          "type": "address"
        },
        {
          "internalType": "address",
          "name": "operator",
          "type": "address"
        }
      ],
      "name": "isApprovedForAll",
      "outputs": [
        {
          "internalType": "bool",
          "name": "",
          "type": "bool"
        }
      ],
      "stateMutability": "view",
      "type": "function"
    },
    {
      "inputs": [],
      "name": "listingPrice",
      "outputs": [
        {
          "internalType": "uint256",
          "name": "",
          "type": "uint256"
        }
      ],
      "stateMutability": "view",
      "type": "function"
    },
    {
      "inputs": [],
      "name": "name",
      "outputs": [
        {
          "internalType": "string",
          "name": "",
          "type": "string"
        }
      ],
      "stateMutability": "view",
      "type": "function"
    },
    {
      "inputs": [
        {
          "internalType": "uint256",
          "name": "tokenId",
          "type": "uint256"
        }
      ],
      "name": "ownerOf",
      "outputs": [
        {
          "internalType": "address",
          "name": "",
          "type": "address"
        }
      ],
      "stateMutability": "view",
      "type": "function"
    },
    {
      "inputs": [],
      "name": "ownerTaxPercentage",
      "outputs": [
        {
          "internalType": "uint256",
          "name": "",
          "type": "uint256"
        }
      ],
      "stateMutability": "view",
      "type": "function"
    },
    {
      "inputs": [
        {
          "internalType": "uint256",
          "name": "tokenId",
          "type": "uint256"
        },
        {
          "internalType": "uint256",
          "name": "price",
          "type": "uint256"
        }
      ],
      "name": "resellToken",
      "outputs": [],
      "stateMutability": "payable",
      "type": "function"
    },
    {
      "inputs": [
        {
          "internalType": "address",
          "name": "from",
          "type": "address"
        },
        {
          "internalType": "address",
          "name": "to",
          "type": "address"
        },
        {
          "internalType": "uint256",
          "name": "tokenId",
          "type": "uint256"
        }
      ],
      "name": "safeTransferFrom",
      "outputs": [],
      "stateMutability": "nonpayable",
      "type": "function"
    },
    {
      "inputs": [
        {
          "internalType": "address",
          "name": "from",
          "type": "address"
        },
        {
          "internalType": "address",
          "name": "to",
          "type": "address"
        },
        {
          "internalType": "uint256",
          "name": "tokenId",
          "type": "uint256"
        },
        {
          "internalType": "bytes",
          "name": "data",
          "type": "bytes"
        }
      ],
      "name": "safeTransferFrom",
      "outputs": [],
      "stateMutability": "nonpayable",
      "type": "function"
    },
    {
      "inputs": [],
      "name": "salesTaxPercentage",
      "outputs": [
        {
          "internalType": "uint256",
          "name": "",
          "type": "uint256"
        }
      ],
      "stateMutability": "view",
      "type": "function"
    },
    {
      "inputs": [
        {
          "internalType": "address",
          "name": "operator",
          "type": "address"
        },
        {
          "internalType": "bool",
          "name": "approved",
          "type": "bool"
        }
      ],
      "name": "setApprovalForAll",
      "outputs": [],
      "stateMutability": "nonpayable",
      "type": "function"
    },
    {
      "inputs": [
        {
          "internalType": "address",
          "name": "_burnAddress",
          "type": "address"
        }
      ],
      "name": "setBurnAddress",
      "outputs": [],
      "stateMutability": "nonpayable",
      "type": "function"
    },
    {
      "inputs": [
        {
          "internalType": "uint256",
          "name": "_burnPercentage",
          "type": "uint256"
        }
      ],
      "name": "setBurnPercentage",
      "outputs": [],
      "stateMutability": "nonpayable",
      "type": "function"
    },
    {
      "inputs": [
        {
          "internalType": "uint256",
          "name": "_ownerTaxPercentage",
          "type": "uint256"
        }
      ],
      "name": "setOwnerTaxPercentage",
      "outputs": [],
      "stateMutability": "nonpayable",
      "type": "function"
    },
    {
      "inputs": [
        {
          "internalType": "address",
          "name": "_pacoTokenAddress",
          "type": "address"
        }
      ],
      "name": "setPacoTokenAddress",
      "outputs": [],
      "stateMutability": "nonpayable",
      "type": "function"
    },
    {
      "inputs": [
        {
          "internalType": "address",
          "name": "_routerAddress",
          "type": "address"
        }
      ],
      "name": "setRouterAddress",
      "outputs": [],
      "stateMutability": "nonpayable",
      "type": "function"
    },
    {
      "inputs": [
        {
          "internalType": "uint256",
          "name": "_salesTaxPercentage",
          "type": "uint256"
        }
      ],
      "name": "setSalesTaxPercentage",
      "outputs": [],
      "stateMutability": "nonpayable",
      "type": "function"
    },
    {
      "inputs": [
        {
          "internalType": "address",
          "name": "_wplsAddress",
          "type": "address"
        }
      ],
      "name": "setWPLSAddress",
      "outputs": [],
      "stateMutability": "nonpayable",
      "type": "function"
    },
    {
      "inputs": [
        {
          "internalType": "bytes4",
          "name": "interfaceId",
          "type": "bytes4"
        }
      ],
      "name": "supportsInterface",
      "outputs": [
        {
          "internalType": "bool",
          "name": "",
          "type": "bool"
        }
      ],
      "stateMutability": "view",
      "type": "function"
    },
    {
      "inputs": [],
      "name": "symbol",
      "outputs": [
        {
          "internalType": "string",
          "name": "",
          "type": "string"
        }
      ],
      "stateMutability": "view",
      "type": "function"
    },
    {
      "inputs": [
        {
          "internalType": "uint256",
          "name": "tokenId",
          "type": "uint256"
        }
      ],
      "name": "tokenURI",
      "outputs": [
        {
          "internalType": "string",
          "name": "",
          "type": "string"
        }
      ],
      "stateMutability": "view",
      "type": "function"
    },
    {
      "inputs": [
        {
          "internalType": "address",
          "name": "from",
          "type": "address"
        },
        {
          "internalType": "address",
          "name": "to",
          "type": "address"
        },
        {
          "internalType": "uint256",
          "name": "tokenId",
          "type": "uint256"
        }
      ],
      "name": "transferFrom",
      "outputs": [],
      "stateMutability": "nonpayable",
      "type": "function"
    },
    {
      "inputs": [
        {
          "internalType": "uint256",
          "name": "_creatingCollectionFee",
          "type": "uint256"
        }
      ],
      "name": "updateCreatingCollectionFee",
      "outputs": [],
      "stateMutability": "payable",
      "type": "function"
    },
    {
      "inputs": [
        {
          "internalType": "uint256",
          "name": "_listingPrice",
          "type": "uint256"
        }
      ],
      "name": "updateListingPrice",
      "outputs": [],
      "stateMutability": "payable",
      "type": "function"
    }
  ],
  "bytecode": "0x6080604052670de0b6b3a7640000600955674563918244f40000600a55600e80546001600160a01b031990811673636f6407b90661b73b1c0f7e24f4c79f624d073817909155600f805482167313ca32a56d9a52810df2fe0bbad71462b0d209ad1790556010805482167370499adebb11efd915e3b69e700c33177862870717905560118054909116610369179055603260125560066015556002601655348015620000aa57600080fd5b50604080518082018252600f81526e141d5b1cd948141b185e9848139195608a1b602080830191825283518085019094526008845267504c53504c415a4160c01b90840152815191929162000102916000916200015c565b508051620001189060019060208401906200015c565b5050600b80546001600160a01b03199081163317909155600e546013805483166001600160a01b03928316179055600f54601480549093169116179055506200023e565b8280546200016a9062000202565b90600052602060002090601f0160209004810192826200018e5760008555620001d9565b82601f10620001a957805160ff1916838001178555620001d9565b82800160010185558215620001d9579182015b82811115620001d9578251825591602001919060010190620001bc565b50620001e7929150620001eb565b5090565b5b80821115620001e75760008155600101620001ec565b600181811c908216806200021757607f821691505b6020821081036200023857634e487b7160e01b600052602260045260246000fd5b50919050565b615be7806200024e6000396000f3fe608060405260043610620002835760003560e01c806396f0fdc01162000153578063c87b56dd11620000c5578063e9a9ff7d1162000084578063e9a9ff7d146200080d578063ef8ef56f1462000858578063f01f20df146200087a578063fa1592781462000892578063fccc281314620008a9578063fdbda0ec14620008cb57600080fd5b8063c87b56dd146200073d578063d0f493d61462000762578063e219fc751462000784578063e7a79fbc146200079b578063e985e9c514620007c057600080fd5b8063b94a6dfe1162000112578063b94a6dfe14620006af578063be9af53614620006d1578063bf14058314620006e8578063c3f0d3271462000700578063c78f19f9146200072557600080fd5b806396f0fdc01462000612578063a22cb4651462000637578063a6e8e9e0146200065c578063ae677aa31462000673578063b88d4fde146200068a57600080fd5b806342842e0e11620001f95780636352211e11620001b85780636352211e146200051557806370a08231146200053a57806372b3b620146200055f5780637b030816146200059457806392b426a314620005d557806395d89b4114620005fa57600080fd5b806342842e0e1462000458578063428e5936146200047d57806345f8fa80146200049557806346e6358614620004ad5780634b0e721614620004d457600080fd5b8063202e37401162000246578063202e3740146200037557806323b872dd146200038d578063315192f914620003b257806334deb86d14620003d957806341cb87fc146200040d57600080fd5b806301ffc9a7146200028857806306fdde0314620002c2578063081812fc14620002e9578063095ea7b314620003275780630f08efe0146200034e575b600080fd5b3480156200029557600080fd5b50620002ad620002a736600462003904565b62000904565b60405190151581526020015b60405180910390f35b348015620002cf57600080fd5b50620002da62000932565b604051620002b9919062003981565b348015620002f657600080fd5b506200030e6200030836600462003996565b620009cc565b6040516001600160a01b039091168152602001620002b9565b3480156200033457600080fd5b506200034c62000346366004620039cd565b620009f5565b005b3480156200035b57600080fd5b506200036662000b19565b604051620002b99190620039fa565b3480156200038257600080fd5b506200036662000cb4565b3480156200039a57600080fd5b506200034c620003ac36600462003a86565b62000e92565b348015620003bf57600080fd5b50620003ca600a5481565b604051908152602001620002b9565b348015620003e657600080fd5b50620003fe620003f836600462003ac7565b62000eca565b604051620002b9919062003b78565b3480156200041a57600080fd5b506200034c6200042c36600462003ac7565b600e80546001600160a01b039092166001600160a01b0319928316811790915560138054909216179055565b3480156200046557600080fd5b506200034c6200047736600462003a86565b62001241565b3480156200048a57600080fd5b50620003ca60165481565b348015620004a257600080fd5b50620003666200125e565b348015620004ba57600080fd5b50620004c56200143c565b604051620002b9919062003b8d565b348015620004e157600080fd5b506200034c620004f336600462003ac7565b601180546001600160a01b0319166001600160a01b0392909216919091179055565b3480156200052257600080fd5b506200030e6200053436600462003996565b62001728565b3480156200054757600080fd5b50620003ca6200055936600462003ac7565b6200178a565b620005766200057036600462003cbe565b62001812565b604080519283526001600160a01b03909116602083015201620002b9565b348015620005a157600080fd5b506200034c620005b336600462003ac7565b601080546001600160a01b0319166001600160a01b0392909216919091179055565b348015620005e257600080fd5b50620004c5620005f436600462003ac7565b620018c5565b3480156200060757600080fd5b50620002da62001cf6565b3480156200061f57600080fd5b506200034c6200063136600462003996565b62001d07565b3480156200064457600080fd5b506200034c6200065636600462003d16565b62001dd7565b6200034c6200066d36600462003996565b62001de8565b6200034c6200068436600462003996565b62001e1a565b3480156200069757600080fd5b506200034c620006a936600462003d52565b62001e4c565b348015620006bc57600080fd5b50600e546200030e906001600160a01b031681565b6200034c620006e236600462003996565b62001e8b565b348015620006f557600080fd5b50620003ca60155481565b3480156200070d57600080fd5b506200034c6200071f36600462003996565b62002319565b3480156200073257600080fd5b50620003ca60095481565b3480156200074a57600080fd5b50620002da6200075c36600462003996565b620023af565b3480156200076f57600080fd5b50600f546200030e906001600160a01b031681565b6200034c6200079536600462003dd7565b620024d0565b348015620007a857600080fd5b506200034c620007ba36600462003996565b6200267c565b348015620007cd57600080fd5b50620002ad620007df36600462003dfa565b6001600160a01b03918216600090815260056020908152604080832093909416825291909152205460ff1690565b3480156200081a57600080fd5b506200034c6200082c36600462003ac7565b600f80546001600160a01b039092166001600160a01b0319928316811790915560148054909216179055565b3480156200086557600080fd5b506010546200030e906001600160a01b031681565b3480156200088757600080fd5b50620003ca60125481565b6200030e620008a336600462003e32565b620026d2565b348015620008b657600080fd5b506011546200030e906001600160a01b031681565b348015620008d857600080fd5b50620008f0620008ea36600462003996565b620029d4565b604051620002b99695949392919062003ee0565b60006001600160e01b03198216632483248360e11b14806200092c57506200092c8262002c6b565b92915050565b606060008054620009439062003f5b565b80601f0160208091040260200160405190810160405280929190818152602001828054620009719062003f5b565b8015620009c25780601f106200099657610100808354040283529160200191620009c2565b820191906000526020600020905b815481529060010190602001808311620009a457829003601f168201915b5050505050905090565b6000620009d98262002cbe565b506000908152600460205260409020546001600160a01b031690565b600062000a028262001728565b9050806001600160a01b0316836001600160a01b03160362000a755760405162461bcd60e51b815260206004820152602160248201527f4552433732313a20617070726f76616c20746f2063757272656e74206f776e656044820152603960f91b60648201526084015b60405180910390fd5b336001600160a01b038216148062000a94575062000a948133620007df565b62000b085760405162461bcd60e51b815260206004820152603d60248201527f4552433732313a20617070726f76652063616c6c6572206973206e6f7420746f60448201527f6b656e206f776e6572206f7220617070726f76656420666f7220616c6c000000606482015260840162000a6c565b62000b14838362002d22565b505050565b6060600062000b2760075490565b9050600062000b3560085490565b60075462000b44919062003fad565b90506000808267ffffffffffffffff81111562000b655762000b6562003bf3565b60405190808252806020026020018201604052801562000ba257816020015b62000b8e620037bc565b81526020019060019003908162000b845790505b50905060005b8481101562000cab5730600c600062000bc384600162003fc7565b81526020810191909152604001600020600301546001600160a01b03160362000c9657600062000bf582600162003fc7565b6000818152600c6020908152604091829020825160c0810184528154815260018201546001600160a01b039081169382019390935260028201548316938101939093526003810154909116606083015260048101546080830152600581015460ff16151560a083015285519293509185908790811062000c795762000c7962003fe2565b602090810291909101015262000c9160018662003fc7565b945050505b8062000ca28162003ff8565b91505062000ba8565b50949350505050565b6060600062000cc260075490565b905060008060005b8381101562000d2d5733600c600062000ce584600162003fc7565b81526020810191909152604001600020600301546001600160a01b03160362000d185762000d1560018462003fc7565b92505b8062000d248162003ff8565b91505062000cca565b5060008267ffffffffffffffff81111562000d4c5762000d4c62003bf3565b60405190808252806020026020018201604052801562000d8957816020015b62000d75620037bc565b81526020019060019003908162000d6b5790505b50905060005b8481101562000cab5733600c600062000daa84600162003fc7565b81526020810191909152604001600020600301546001600160a01b03160362000e7d57600062000ddc82600162003fc7565b6000818152600c6020908152604091829020825160c0810184528154815260018201546001600160a01b039081169382019390935260028201548316938101939093526003810154909116606083015260048101546080830152600581015460ff16151560a083015285519293509185908790811062000e605762000e6062003fe2565b602090810291909101015262000e7860018662003fc7565b945050505b8062000e898162003ff8565b91505062000d8f565b62000e9e338262002d92565b62000ebd5760405162461bcd60e51b815260040162000a6c9062004014565b62000b1483838362002e16565b62000ed4620037f1565b60005b600d54811015620011ff57826001600160a01b0316600d828154811062000f025762000f0262003fe2565b60009182526020909120600160069092020101546001600160a01b031603620011ea57600d818154811062000f3b5762000f3b62003fe2565b60009182526020918290206040805160c081018252600690930290910180546001600160a01b039081168452600182015416938301939093526002830180549293929184019162000f8c9062003f5b565b80601f016020809104026020016040519081016040528092919081815260200182805462000fba9062003f5b565b80156200100b5780601f1062000fdf576101008083540402835291602001916200100b565b820191906000526020600020905b81548152906001019060200180831162000fed57829003601f168201915b50505050508152602001600382018054620010269062003f5b565b80601f0160208091040260200160405190810160405280929190818152602001828054620010549062003f5b565b8015620010a55780601f106200107957610100808354040283529160200191620010a5565b820191906000526020600020905b8154815290600101906020018083116200108757829003601f168201915b50505050508152602001600482018054620010c09062003f5b565b80601f0160208091040260200160405190810160405280929190818152602001828054620010ee9062003f5b565b80156200113f5780601f1062001113576101008083540402835291602001916200113f565b820191906000526020600020905b8154815290600101906020018083116200112157829003601f168201915b505050505081526020016005820180546200115a9062003f5b565b80601f0160208091040260200160405190810160405280929190818152602001828054620011889062003f5b565b8015620011d95780601f10620011ad57610100808354040283529160200191620011d9565b820191906000526020600020905b815481529060010190602001808311620011bb57829003601f168201915b505050505081525050915050919050565b80620011f68162003ff8565b91505062000ed7565b5060405162461bcd60e51b815260206004820152601560248201527421b7b63632b1ba34b7b7103737ba103337bab7321760591b604482015260640162000a6c565b62000b148383836040518060200160405280600081525062001e4c565b606060006200126c60075490565b905060008060005b83811015620012d75733600c60006200128f84600162003fc7565b81526020810191909152604001600020600201546001600160a01b031603620012c257620012bf60018462003fc7565b92505b80620012ce8162003ff8565b91505062001274565b5060008267ffffffffffffffff811115620012f657620012f662003bf3565b6040519080825280602002602001820160405280156200133357816020015b6200131f620037bc565b815260200190600190039081620013155790505b50905060005b8481101562000cab5733600c60006200135484600162003fc7565b81526020810191909152604001600020600201546001600160a01b031603620014275760006200138682600162003fc7565b6000818152600c6020908152604091829020825160c0810184528154815260018201546001600160a01b039081169382019390935260028201548316938101939093526003810154909116606083015260048101546080830152600581015460ff16151560a08301528551929350918590879081106200140a576200140a62003fe2565b60209081029190910101526200142260018662003fc7565b945050505b80620014338162003ff8565b91505062001339565b6060600d805480602002602001604051908101604052809291908181526020016000905b828210156200171f5760008481526020908190206040805160c0810182526006860290920180546001600160a01b0390811684526001820154169383019390935260028301805492939291840191620014b99062003f5b565b80601f0160208091040260200160405190810160405280929190818152602001828054620014e79062003f5b565b8015620015385780601f106200150c5761010080835404028352916020019162001538565b820191906000526020600020905b8154815290600101906020018083116200151a57829003601f168201915b50505050508152602001600382018054620015539062003f5b565b80601f0160208091040260200160405190810160405280929190818152602001828054620015819062003f5b565b8015620015d25780601f10620015a657610100808354040283529160200191620015d2565b820191906000526020600020905b815481529060010190602001808311620015b457829003601f168201915b50505050508152602001600482018054620015ed9062003f5b565b80601f01602080910402602001604051908101604052809291908181526020018280546200161b9062003f5b565b80156200166c5780601f1062001640576101008083540402835291602001916200166c565b820191906000526020600020905b8154815290600101906020018083116200164e57829003601f168201915b50505050508152602001600582018054620016879062003f5b565b80601f0160208091040260200160405190810160405280929190818152602001828054620016b59062003f5b565b8015620017065780601f10620016da5761010080835404028352916020019162001706565b820191906000526020600020905b815481529060010190602001808311620016e857829003601f168201915b5050505050815250508152602001906001019062001460565b50505050905090565b6000818152600260205260408120546001600160a01b0316806200092c5760405162461bcd60e51b8152602060048201526018602482015277115490cdcc8c4e881a5b9d985b1a59081d1bdad95b88125160421b604482015260640162000a6c565b60006001600160a01b038216620017f65760405162461bcd60e51b815260206004820152602960248201527f4552433732313a2061646472657373207a65726f206973206e6f7420612076616044820152683634b21037bbb732b960b91b606482015260840162000a6c565b506001600160a01b031660009081526003602052604090205490565b6000806009543414620018395760405162461bcd60e51b815260040162000a6c9062004061565b600b546009546040516001600160a01b039092169181156108fc0291906000818181858888f1935050505015801562001876573d6000803e3d6000fd5b5062001886600780546001019055565b60006200189260075490565b9050620018a0338262002f86565b620018ac818662003117565b33620018ba828683620031ed565b509433945092505050565b60606000805b600d548110156200193b57836001600160a01b0316600d8281548110620018f657620018f662003fe2565b60009182526020909120600690910201546001600160a01b031603620019265781620019228162003ff8565b9250505b80620019328162003ff8565b915050620018cb565b5060008167ffffffffffffffff8111156200195a576200195a62003bf3565b6040519080825280602002602001820160405280156200199757816020015b62001983620037f1565b815260200190600190039081620019795790505b5090506000805b600d5481101562001cec57856001600160a01b0316600d8281548110620019c957620019c962003fe2565b60009182526020909120600690910201546001600160a01b03160362001cd757600d8181548110620019ff57620019ff62003fe2565b60009182526020918290206040805160c081018252600690930290910180546001600160a01b039081168452600182015416938301939093526002830180549293929184019162001a509062003f5b565b80601f016020809104026020016040519081016040528092919081815260200182805462001a7e9062003f5b565b801562001acf5780601f1062001aa35761010080835404028352916020019162001acf565b820191906000526020600020905b81548152906001019060200180831162001ab157829003601f168201915b5050505050815260200160038201805462001aea9062003f5b565b80601f016020809104026020016040519081016040528092919081815260200182805462001b189062003f5b565b801562001b695780601f1062001b3d5761010080835404028352916020019162001b69565b820191906000526020600020905b81548152906001019060200180831162001b4b57829003601f168201915b5050505050815260200160048201805462001b849062003f5b565b80601f016020809104026020016040519081016040528092919081815260200182805462001bb29062003f5b565b801562001c035780601f1062001bd75761010080835404028352916020019162001c03565b820191906000526020600020905b81548152906001019060200180831162001be557829003601f168201915b5050505050815260200160058201805462001c1e9062003f5b565b80601f016020809104026020016040519081016040528092919081815260200182805462001c4c9062003f5b565b801562001c9d5780601f1062001c715761010080835404028352916020019162001c9d565b820191906000526020600020905b81548152906001019060200180831162001c7f57829003601f168201915b50505050508152505083838151811062001cbb5762001cbb62003fe2565b6020026020010181905250818062001cd39062003ff8565b9250505b8062001ce38162003ff8565b9150506200199e565b5090949350505050565b606060018054620009439062003f5b565b600b546001600160a01b0316331462001d345760405162461bcd60e51b815260040162000a6c90620040a6565b606481111562001d585760405162461bcd60e51b815260040162000a6c9062004103565b60155481111562001dd25760405162461bcd60e51b815260206004820152603860248201527f5461782070657263656e746167652063616e6e6f74206265206d6f726520746860448201527f616e20746f74616c207461782070657263656e746167652e0000000000000000606482015260840162000a6c565b601655565b62001de433838362003357565b5050565b600b546001600160a01b0316331462001e155760405162461bcd60e51b815260040162000a6c90620040a6565b600a55565b600b546001600160a01b0316331462001e475760405162461bcd60e51b815260040162000a6c90620040a6565b600955565b62001e58338362002d92565b62001e775760405162461bcd60e51b815260040162000a6c9062004014565b62001e858484848462003427565b50505050565b6000818152600c602052604090206004015434811462001f1e5760405162461bcd60e51b815260206004820152604160248201527f506c65617365207375626d6974207468652061736b696e67207072696365206960448201527f6e206f7264657220746f20636f6d706c657465207468652070757263686173656064820152601760f91b608482015260a40162000a6c565b6000828152600c602052604090206003810180546001600160a01b03191633179055600501805460ff1916600117905562001f5d600880546001019055565b62001f6a30338462002e16565b600060646015548362001f7e91906200414a565b62001f8a91906200416c565b9050600062001f9a828462003fad565b9050600060646016548562001fb091906200414a565b62001fbc91906200416c565b600b546040519192506001600160a01b03169082156108fc029083906000818181858888f1935050505015801562001ff8573d6000803e3d6000fd5b50600062002007828562003fad565b6040805160028082526060820183529293506000929091602083019080368337505060105482519293506001600160a01b03169183915060009062002050576200205062003fe2565b6001600160a01b039283166020918202929092010152600f5482519116908290600190811062002084576200208462003fe2565b6001600160a01b03909216602092830291909101909101526000620020ab42603c62003fc7565b601354604051637ff36ab560e01b81529192506000916001600160a01b0390911690637ff36ab5908690620020eb9085908890309089906004016200418f565b60006040518083038185885af11580156200210a573d6000803e3d6000fd5b50505050506040513d6000823e601f3d908101601f19168201604052620021359190810190620041fb565b9050600081600183516200214a919062003fad565b815181106200215d576200215d62003fe2565b6020026020010151905060006064601254836200217b91906200414a565b6200218791906200416c565b9050600062002197828462003fad565b60145460115460405163a9059cbb60e01b81526001600160a01b03918216600482015260248101869052929350169063a9059cbb906044016020604051808303816000875af1158015620021ef573d6000803e3d6000fd5b505050506040513d601f19601f82011682018060405250810190620022159190620042ac565b5060145460008d8152600c60205260409081902060010154905163a9059cbb60e01b81526001600160a01b0391821660048201526024810184905291169063a9059cbb906044016020604051808303816000875af11580156200227c573d6000803e3d6000fd5b505050506040513d601f19601f82011682018060405250810190620022a29190620042ac565b5060008c8152600c60205260408082206002015490516001600160a01b03909116918b156108fc02918c91818181858888f19350505050158015620022eb573d6000803e3d6000fd5b5050506000998a525050600c6020525050604090952060020180546001600160a01b03191690555050505050565b600b546001600160a01b03163314620023465760405162461bcd60e51b815260040162000a6c90620040a6565b6064811115620023aa5760405162461bcd60e51b815260206004820152602860248201527f4275726e2070657263656e746167652063616e6e6f74206265206d6f726520746044820152673430b7101898181760c11b606482015260840162000a6c565b601255565b6060620023bc8262002cbe565b60008281526006602052604081208054620023d79062003f5b565b80601f0160208091040260200160405190810160405280929190818152602001828054620024059062003f5b565b8015620024565780601f106200242a5761010080835404028352916020019162002456565b820191906000526020600020905b8154815290600101906020018083116200243857829003601f168201915b5050505050905060006200247560408051602081019091526000815290565b9050805160000362002488575092915050565b815115620024bd578082604051602001620024a5929190620042cc565b60405160208183030381529060405292505050919050565b620024c88462003461565b949350505050565b33620024dc8362001728565b6001600160a01b031614620025485760405162461bcd60e51b815260206004820152602b60248201527f4f6e6c79206974656d206f776e65722063616e20706572666f726d207468697360448201526a1037b832b930ba34b7b71760a91b606482015260840162000a6c565b60095434146200256c5760405162461bcd60e51b815260040162000a6c9062004061565b600b546009546040516001600160a01b039092169181156108fc0291906000818181858888f19350505050158015620025a9573d6000803e3d6000fd5b506000828152600c6020526040902060058101805460ff19169055600481018290556002810180546001600160a01b031990811633179091556003909101805490911630179055620025fc6008620034de565b6200260933308462002e16565b6000828152600c602090815260408083206001015481516001600160a01b0390911681523392810192909252309082015260608101839052608081019190915282907fd6b5a2ea507e15741fd76fed025e0dfe9294bea94de5e3359d76d718efd991bd9060a00160405180910390a25050565b600b546001600160a01b03163314620026a95760405162461bcd60e51b815260040162000a6c90620040a6565b6064811115620026cd5760405162461bcd60e51b815260040162000a6c9062004103565b601555565b6000600a543414620027325760405162461bcd60e51b815260206004820152602260248201527f4d7573742073656e6420636f6c6c656374696f6e206372656174696e67206665604482015261329760f11b606482015260840162000a6c565b600b54600a546040516001600160a01b039092169181156108fc0291906000818181858888f193505050501580156200276f573d6000803e3d6000fd5b50600060405180602001620027849062003839565b601f1982820381018352601f909101166040819052620027ab9088908890602001620042ff565b60408051601f1981840301815290829052620027cb9291602001620042cc565b60408051808303601f1901815290829052600d546bffffffffffffffffffffffff1933606090811b8216602086015230901b1660348401526048830181905290925090600090606801604051602081830303815290604052805190602001209050808351602085016000f56040805160c0810182523381526001600160a01b0380841660208084019182529383018d8152606084018d9052608084018c905260a084018b9052600d8054600181018255600091909152845160069091027fd7b6990105719101dabeb77144f2a3385c8033acd3af97e9423a695e81ad1eb5810180549286166001600160a01b031993841617815593517fd7b6990105719101dabeb77144f2a3385c8033acd3af97e9423a695e81ad1eb68201805491909616921691909117909355518051959950929490936200292f937fd7b6990105719101dabeb77144f2a3385c8033acd3af97e9423a695e81ad1eb790930192019062003847565b50606082015180516200294d91600384019160209091019062003847565b50608082015180516200296b91600484019160209091019062003847565b5060a082015180516200298991600584019160209091019062003847565b5050507f0a1b974ac88883627d7c323e3334f99a2e1de1508f5376ebae1c2078435c3d01828486604051620029c19392919062004328565b60405180910390a1505050949350505050565b600d8181548110620029e557600080fd5b60009182526020909120600690910201805460018201546002830180546001600160a01b03938416955092909116929162002a209062003f5b565b80601f016020809104026020016040519081016040528092919081815260200182805462002a4e9062003f5b565b801562002a9f5780601f1062002a735761010080835404028352916020019162002a9f565b820191906000526020600020905b81548152906001019060200180831162002a8157829003601f168201915b50505050509080600301805462002ab69062003f5b565b80601f016020809104026020016040519081016040528092919081815260200182805462002ae49062003f5b565b801562002b355780601f1062002b095761010080835404028352916020019162002b35565b820191906000526020600020905b81548152906001019060200180831162002b1757829003601f168201915b50505050509080600401805462002b4c9062003f5b565b80601f016020809104026020016040519081016040528092919081815260200182805462002b7a9062003f5b565b801562002bcb5780601f1062002b9f5761010080835404028352916020019162002bcb565b820191906000526020600020905b81548152906001019060200180831162002bad57829003601f168201915b50505050509080600501805462002be29062003f5b565b80601f016020809104026020016040519081016040528092919081815260200182805462002c109062003f5b565b801562002c615780601f1062002c355761010080835404028352916020019162002c61565b820191906000526020600020905b81548152906001019060200180831162002c4357829003601f168201915b5050505050905086565b60006001600160e01b031982166380ac58cd60e01b148062002c9d57506001600160e01b03198216635b5e139f60e01b145b806200092c57506301ffc9a760e01b6001600160e01b03198316146200092c565b6000818152600260205260409020546001600160a01b031662002d1f5760405162461bcd60e51b8152602060048201526018602482015277115490cdcc8c4e881a5b9d985b1a59081d1bdad95b88125160421b604482015260640162000a6c565b50565b600081815260046020526040902080546001600160a01b0319166001600160a01b038416908117909155819062002d598262001728565b6001600160a01b03167f8c5be1e5ebec7d5bd14f71427d1e84f3dd0314c0f7b2291e5b200ac8c7c3b92560405160405180910390a45050565b60008062002da08362001728565b9050806001600160a01b0316846001600160a01b0316148062002de857506001600160a01b0380821660009081526005602090815260408083209388168352929052205460ff165b80620024c85750836001600160a01b031662002e0484620009cc565b6001600160a01b031614949350505050565b826001600160a01b031662002e2b8262001728565b6001600160a01b03161462002e545760405162461bcd60e51b815260040162000a6c906200435b565b6001600160a01b03821662002eb85760405162461bcd60e51b8152602060048201526024808201527f4552433732313a207472616e7366657220746f20746865207a65726f206164646044820152637265737360e01b606482015260840162000a6c565b826001600160a01b031662002ecd8262001728565b6001600160a01b03161462002ef65760405162461bcd60e51b815260040162000a6c906200435b565b600081815260046020908152604080832080546001600160a01b03199081169091556001600160a01b0387811680865260038552838620805460001901905590871680865283862080546001019055868652600290945282852080549092168417909155905184937fddf252ad1be2c89b69c2b068fc378daa952ba7f163c4a11628f55a4df523b3ef91a4505050565b6001600160a01b03821662002fde5760405162461bcd60e51b815260206004820181905260248201527f4552433732313a206d696e7420746f20746865207a65726f2061646472657373604482015260640162000a6c565b6000818152600260205260409020546001600160a01b031615620030455760405162461bcd60e51b815260206004820152601c60248201527f4552433732313a20746f6b656e20616c7265616479206d696e74656400000000604482015260640162000a6c565b6000818152600260205260409020546001600160a01b031615620030ac5760405162461bcd60e51b815260206004820152601c60248201527f4552433732313a20746f6b656e20616c7265616479206d696e74656400000000604482015260640162000a6c565b6001600160a01b038216600081815260036020908152604080832080546001019055848352600290915280822080546001600160a01b0319168417905551839291907fddf252ad1be2c89b69c2b068fc378daa952ba7f163c4a11628f55a4df523b3ef908290a45050565b6000828152600260205260409020546001600160a01b0316620031945760405162461bcd60e51b815260206004820152602e60248201527f45524337323155524953746f726167653a2055524920736574206f66206e6f6e60448201526d32bc34b9ba32b73a103a37b5b2b760911b606482015260840162000a6c565b60008281526006602090815260409091208251620031b59284019062003847565b506040518281527ff8e1a15aba9398e019f0b49df1a4fde98ee17ae345cb5f6b5e2c27f5033e8ce79060200160405180910390a15050565b600082116200323f5760405162461bcd60e51b815260206004820152601d60248201527f5072696365206d757374206265206174206c656173742031207765692e000000604482015260640162000a6c565b6040805160c0810182528481526001600160a01b038084166020808401918252338486018181523060608701818152608088018b8152600060a08a018181528e8252600c909752999099209751885594516001880180549188166001600160a01b031992831617905591516002880180549188169184169190911790559351600387018054919096169116179093559351600484015592516005909201805492151560ff1990931692909217909155620032fa918562002e16565b604080516001600160a01b038316815233602082015230818301526060810184905260006080820152905184917fd6b5a2ea507e15741fd76fed025e0dfe9294bea94de5e3359d76d718efd991bd919081900360a00190a2505050565b816001600160a01b0316836001600160a01b031603620033ba5760405162461bcd60e51b815260206004820152601960248201527f4552433732313a20617070726f766520746f2063616c6c657200000000000000604482015260640162000a6c565b6001600160a01b03838116600081815260056020908152604080832094871680845294825291829020805460ff191686151590811790915591519182527f17307eab39ab6107e8899845ad3d59bd9653f200f220920489ca2b5937696c31910160405180910390a3505050565b6200343484848462002e16565b620034428484848462003537565b62001e855760405162461bcd60e51b815260040162000a6c90620043a0565b60606200346e8262002cbe565b60006200348660408051602081019091526000815290565b90506000815111620034a85760405180602001604052806000815250620034d7565b80620034b48462003643565b604051602001620034c7929190620042cc565b6040516020818303038152906040525b9392505050565b8054806200352f5760405162461bcd60e51b815260206004820152601b60248201527f436f756e7465723a2064656372656d656e74206f766572666c6f770000000000604482015260640162000a6c565b600019019055565b60006001600160a01b0384163b156200363a57604051630a85bd0160e11b81526001600160a01b0385169063150b7a02906200357e903390899088908890600401620043f2565b6020604051808303816000875af1925050508015620035bc575060408051601f3d908101601f19168201909252620035b99181019062004431565b60015b6200361f573d808015620035ed576040519150601f19603f3d011682016040523d82523d6000602084013e620035f2565b606091505b508051600003620036175760405162461bcd60e51b815260040162000a6c90620043a0565b805181602001fd5b6001600160e01b031916630a85bd0160e11b149050620024c8565b506001620024c8565b606060006200365283620036dd565b600101905060008167ffffffffffffffff81111562003675576200367562003bf3565b6040519080825280601f01601f191660200182016040528015620036a0576020820181803683370190505b5090508181016020015b600019016f181899199a1a9b1b9c1cb0b131b232b360811b600a86061a8153600a8504945084620036aa57509392505050565b60008072184f03e93ff9f4daa797ed6e38ed64bf6a1f0160401b83106200371d5772184f03e93ff9f4daa797ed6e38ed64bf6a1f0160401b830492506040015b6d04ee2d6d415b85acef810000000083106200374a576d04ee2d6d415b85acef8100000000830492506020015b662386f26fc1000083106200376957662386f26fc10000830492506010015b6305f5e100831062003782576305f5e100830492506008015b61271083106200379757612710830492506004015b60648310620037aa576064830492506002015b600a83106200092c5760010192915050565b6040805160c081018252600080825260208201819052918101829052606081018290526080810182905260a081019190915290565b6040518060c0016040528060006001600160a01b0316815260200160006001600160a01b03168152602001606081526020016060815260200160608152602001606081525090565b611760806200445283390190565b828054620038559062003f5b565b90600052602060002090601f016020900481019282620038795760008555620038c4565b82601f106200389457805160ff1916838001178555620038c4565b82800160010185558215620038c4579182015b82811115620038c4578251825591602001919060010190620038a7565b50620038d2929150620038d6565b5090565b5b80821115620038d25760008155600101620038d7565b6001600160e01b03198116811462002d1f57600080fd5b6000602082840312156200391757600080fd5b8135620034d781620038ed565b60005b838110156200394157818101518382015260200162003927565b8381111562001e855750506000910152565b600081518084526200396d81602086016020860162003924565b601f01601f19169290920160200192915050565b602081526000620034d7602083018462003953565b600060208284031215620039a957600080fd5b5035919050565b80356001600160a01b0381168114620039c857600080fd5b919050565b60008060408385031215620039e157600080fd5b620039ec83620039b0565b946020939093013593505050565b602080825282518282018190526000919060409081850190868401855b8281101562003a7957815180518552868101516001600160a01b039081168887015286820151811687870152606080830151909116908601526080808201519086015260a09081015115159085015260c0909301929085019060010162003a17565b5091979650505050505050565b60008060006060848603121562003a9c57600080fd5b62003aa784620039b0565b925062003ab760208501620039b0565b9150604084013590509250925092565b60006020828403121562003ada57600080fd5b620034d782620039b0565b600060018060a01b0380835116845280602084015116602085015250604082015160c0604085015262003b1c60c085018262003953565b90506060830151848203606086015262003b37828262003953565b9150506080830151848203608086015262003b53828262003953565b91505060a083015184820360a086015262003b6f828262003953565b95945050505050565b602081526000620034d7602083018462003ae5565b6000602080830181845280855180835260408601915060408160051b870101925083870160005b8281101562003be657603f1988860301845262003bd385835162003ae5565b9450928501929085019060010162003bb4565b5092979650505050505050565b634e487b7160e01b600052604160045260246000fd5b604051601f8201601f1916810167ffffffffffffffff8111828210171562003c355762003c3562003bf3565b604052919050565b600067ffffffffffffffff83111562003c5a5762003c5a62003bf3565b62003c6f601f8401601f191660200162003c09565b905082815283838301111562003c8457600080fd5b828260208301376000602084830101529392505050565b600082601f83011262003cad57600080fd5b620034d78383356020850162003c3d565b6000806040838503121562003cd257600080fd5b823567ffffffffffffffff81111562003cea57600080fd5b62003cf88582860162003c9b565b95602094909401359450505050565b801515811462002d1f57600080fd5b6000806040838503121562003d2a57600080fd5b62003d3583620039b0565b9150602083013562003d478162003d07565b809150509250929050565b6000806000806080858703121562003d6957600080fd5b62003d7485620039b0565b935062003d8460208601620039b0565b925060408501359150606085013567ffffffffffffffff81111562003da857600080fd5b8501601f8101871362003dba57600080fd5b62003dcb8782356020840162003c3d565b91505092959194509250565b6000806040838503121562003deb57600080fd5b50508035926020909101359150565b6000806040838503121562003e0e57600080fd5b62003e1983620039b0565b915062003e2960208401620039b0565b90509250929050565b6000806000806080858703121562003e4957600080fd5b843567ffffffffffffffff8082111562003e6257600080fd5b62003e708883890162003c9b565b9550602087013591508082111562003e8757600080fd5b62003e958883890162003c9b565b9450604087013591508082111562003eac57600080fd5b62003eba8883890162003c9b565b9350606087013591508082111562003ed157600080fd5b5062003dcb8782880162003c9b565b6001600160a01b0387811682528616602082015260c06040820181905260009062003f0e9083018762003953565b828103606084015262003f22818762003953565b9050828103608084015262003f38818662003953565b905082810360a084015262003f4e818562003953565b9998505050505050505050565b600181811c9082168062003f7057607f821691505b60208210810362003f9157634e487b7160e01b600052602260045260246000fd5b50919050565b634e487b7160e01b600052601160045260246000fd5b60008282101562003fc25762003fc262003f97565b500390565b6000821982111562003fdd5762003fdd62003f97565b500190565b634e487b7160e01b600052603260045260246000fd5b6000600182016200400d576200400d62003f97565b5060010190565b6020808252602d908201527f4552433732313a2063616c6c6572206973206e6f7420746f6b656e206f776e6560408201526c1c881bdc88185c1c1c9bdd9959609a1b606082015260800190565b60208082526025908201527f5072696365206d75737420626520657175616c20746f206c697374696e6720706040820152643934b1b29760d91b606082015260800190565b6020808252603d908201527f4f6e6c7920746865206f776e6572206f6620746865206d61726b6574706c616360408201527f652063616e20706572666f726d2074686973206f7065726174696f6e2e000000606082015260800190565b60208082526027908201527f5461782070657263656e746167652063616e6e6f74206265206d6f726520746860408201526630b7101898181760c91b606082015260800190565b600081600019048311821515161562004167576200416762003f97565b500290565b6000826200418a57634e487b7160e01b600052601260045260246000fd5b500490565b600060808201868352602060808185015281875180845260a086019150828901935060005b81811015620041db5784516001600160a01b031683529383019391830191600101620041b4565b50506001600160a01b039690961660408501525050506060015292915050565b600060208083850312156200420f57600080fd5b825167ffffffffffffffff808211156200422857600080fd5b818501915085601f8301126200423d57600080fd5b81518181111562004252576200425262003bf3565b8060051b91506200426584830162003c09565b81815291830184019184810190888411156200428057600080fd5b938501935b83851015620042a05784518252938501939085019062004285565b98975050505050505050565b600060208284031215620042bf57600080fd5b8151620034d78162003d07565b60008351620042e081846020880162003924565b835190830190620042f681836020880162003924565b01949350505050565b60408152600062004314604083018562003953565b828103602084015262003b6f818562003953565b83815260606020820152600062004343606083018562003953565b905060018060a01b0383166040830152949350505050565b60208082526025908201527f4552433732313a207472616e736665722066726f6d20696e636f72726563742060408201526437bbb732b960d91b606082015260800190565b60208082526032908201527f4552433732313a207472616e7366657220746f206e6f6e20455243373231526560408201527131b2b4bb32b91034b6b83632b6b2b73a32b960711b606082015260800190565b6001600160a01b0385811682528416602082015260408101839052608060608201819052600090620044279083018462003953565b9695505050505050565b6000602082840312156200444457600080fd5b8151620034d781620038ed56fe60806040523480156200001157600080fd5b5060405162001760380380620017608339810160408190526200003491620001e1565b8151829082906200004d9060009060208501906200006e565b508051620000639060019060208401906200006e565b505050505062000287565b8280546200007c906200024b565b90600052602060002090601f016020900481019282620000a05760008555620000eb565b82601f10620000bb57805160ff1916838001178555620000eb565b82800160010185558215620000eb579182015b82811115620000eb578251825591602001919060010190620000ce565b50620000f9929150620000fd565b5090565b5b80821115620000f95760008155600101620000fe565b634e487b7160e01b600052604160045260246000fd5b600082601f8301126200013c57600080fd5b81516001600160401b038082111562000159576200015962000114565b604051601f8301601f19908116603f0116810190828211818310171562000184576200018462000114565b81604052838152602092508683858801011115620001a157600080fd5b600091505b83821015620001c55785820183015181830184015290820190620001a6565b83821115620001d75760008385830101525b9695505050505050565b60008060408385031215620001f557600080fd5b82516001600160401b03808211156200020d57600080fd5b6200021b868387016200012a565b935060208501519150808211156200023257600080fd5b5062000241858286016200012a565b9150509250929050565b600181811c908216806200026057607f821691505b6020821081036200028157634e487b7160e01b600052602260045260246000fd5b50919050565b6114c980620002976000396000f3fe608060405234801561001057600080fd5b50600436106101005760003560e01c80636352211e11610097578063b88d4fde11610066578063b88d4fde1461021f578063c4e41b2214610232578063c87b56dd1461023a578063e985e9c51461024d57600080fd5b80636352211e146101de57806370a08231146101f157806395d89b4114610204578063a22cb4651461020c57600080fd5b806323b872dd116100d357806323b872dd146101825780632a5c792a1461019557806342842e0e146101aa57806354ba0f27146101bd57600080fd5b806301ffc9a71461010557806306fdde031461012d578063081812fc14610142578063095ea7b31461016d575b600080fd5b610118610113366004610f98565b610289565b60405190151581526020015b60405180910390f35b6101356102db565b604051610124919061100d565b610155610150366004611020565b61036d565b6040516001600160a01b039091168152602001610124565b61018061017b366004611055565b610394565b005b61018061019036600461107f565b6104ae565b61019d6104df565b60405161012491906110bb565b6101806101b836600461107f565b6105d5565b6101d06101cb366004611113565b6105f0565b604051908152602001610124565b6101556101ec366004611020565b610617565b6101d06101ff366004611113565b610677565b6101356106fd565b61018061021a36600461112e565b61070c565b61018061022d366004611180565b61071b565b6101d0610753565b610135610248366004611020565b610763565b61011861025b36600461125c565b6001600160a01b03918216600090815260056020908152604080832093909416825291909152205460ff1690565b60006001600160e01b031982166380ac58cd60e01b14806102ba57506001600160e01b03198216635b5e139f60e01b145b806102d557506301ffc9a760e01b6001600160e01b03198316145b92915050565b6060600080546102ea9061128f565b80601f01602080910402602001604051908101604052809291908181526020018280546103169061128f565b80156103635780601f1061033857610100808354040283529160200191610363565b820191906000526020600020905b81548152906001019060200180831161034657829003601f168201915b5050505050905090565b6000610378826107d7565b506000908152600460205260409020546001600160a01b031690565b600061039f82610617565b9050806001600160a01b0316836001600160a01b0316036104115760405162461bcd60e51b815260206004820152602160248201527f4552433732313a20617070726f76616c20746f2063757272656e74206f776e656044820152603960f91b60648201526084015b60405180910390fd5b336001600160a01b038216148061042d575061042d813361025b565b61049f5760405162461bcd60e51b815260206004820152603d60248201527f4552433732313a20617070726f76652063616c6c6572206973206e6f7420746f60448201527f6b656e206f776e6572206f7220617070726f76656420666f7220616c6c0000006064820152608401610408565b6104a98383610839565b505050565b6104b833826108a7565b6104d45760405162461bcd60e51b8152600401610408906112c9565b6104a9838383610926565b606060006104eb610753565b905060008167ffffffffffffffff8111156105085761050861116a565b60405190808252806020026020018201604052801561054d57816020015b60408051808201909152600080825260208201528152602001906001900390816105265790505b50905060005b828110156105ce57600061056b6101ec83600161132c565b905060006040518060400160405280846001610587919061132c565b8152602001836001600160a01b03168152509050808484815181106105ae576105ae611344565b6020026020010181905250505080806105c69061135a565b915050610553565b5092915050565b6104a98383836040518060200160405280600081525061071b565b6000610600600680546001019055565b600061060b60065490565b90506102d58382610a8a565b6000818152600260205260408120546001600160a01b0316806102d55760405162461bcd60e51b8152602060048201526018602482015277115490cdcc8c4e881a5b9d985b1a59081d1bdad95b88125160421b6044820152606401610408565b60006001600160a01b0382166106e15760405162461bcd60e51b815260206004820152602960248201527f4552433732313a2061646472657373207a65726f206973206e6f7420612076616044820152683634b21037bbb732b960b91b6064820152608401610408565b506001600160a01b031660009081526003602052604090205490565b6060600180546102ea9061128f565b610717338383610c15565b5050565b61072533836108a7565b6107415760405162461bcd60e51b8152600401610408906112c9565b61074d84848484610ce3565b50505050565b600061075e60065490565b905090565b606061076e826107d7565b600061078560408051602081019091526000815290565b905060008151116107a557604051806020016040528060008152506107d0565b806107af84610d16565b6040516020016107c0929190611373565b6040516020818303038152906040525b9392505050565b6000818152600260205260409020546001600160a01b03166108365760405162461bcd60e51b8152602060048201526018602482015277115490cdcc8c4e881a5b9d985b1a59081d1bdad95b88125160421b6044820152606401610408565b50565b600081815260046020526040902080546001600160a01b0319166001600160a01b038416908117909155819061086e82610617565b6001600160a01b03167f8c5be1e5ebec7d5bd14f71427d1e84f3dd0314c0f7b2291e5b200ac8c7c3b92560405160405180910390a45050565b6000806108b383610617565b9050806001600160a01b0316846001600160a01b031614806108fa57506001600160a01b0380821660009081526005602090815260408083209388168352929052205460ff165b8061091e5750836001600160a01b03166109138461036d565b6001600160a01b0316145b949350505050565b826001600160a01b031661093982610617565b6001600160a01b03161461095f5760405162461bcd60e51b8152600401610408906113a2565b6001600160a01b0382166109c15760405162461bcd60e51b8152602060048201526024808201527f4552433732313a207472616e7366657220746f20746865207a65726f206164646044820152637265737360e01b6064820152608401610408565b826001600160a01b03166109d482610617565b6001600160a01b0316146109fa5760405162461bcd60e51b8152600401610408906113a2565b600081815260046020908152604080832080546001600160a01b03199081169091556001600160a01b0387811680865260038552838620805460001901905590871680865283862080546001019055868652600290945282852080549092168417909155905184937fddf252ad1be2c89b69c2b068fc378daa952ba7f163c4a11628f55a4df523b3ef91a4505050565b6001600160a01b038216610ae05760405162461bcd60e51b815260206004820181905260248201527f4552433732313a206d696e7420746f20746865207a65726f20616464726573736044820152606401610408565b6000818152600260205260409020546001600160a01b031615610b455760405162461bcd60e51b815260206004820152601c60248201527f4552433732313a20746f6b656e20616c7265616479206d696e746564000000006044820152606401610408565b6000818152600260205260409020546001600160a01b031615610baa5760405162461bcd60e51b815260206004820152601c60248201527f4552433732313a20746f6b656e20616c7265616479206d696e746564000000006044820152606401610408565b6001600160a01b038216600081815260036020908152604080832080546001019055848352600290915280822080546001600160a01b0319168417905551839291907fddf252ad1be2c89b69c2b068fc378daa952ba7f163c4a11628f55a4df523b3ef908290a45050565b816001600160a01b0316836001600160a01b031603610c765760405162461bcd60e51b815260206004820152601960248201527f4552433732313a20617070726f766520746f2063616c6c6572000000000000006044820152606401610408565b6001600160a01b03838116600081815260056020908152604080832094871680845294825291829020805460ff191686151590811790915591519182527f17307eab39ab6107e8899845ad3d59bd9653f200f220920489ca2b5937696c31910160405180910390a3505050565b610cee848484610926565b610cfa84848484610da9565b61074d5760405162461bcd60e51b8152600401610408906113e7565b60606000610d2383610eaa565b600101905060008167ffffffffffffffff811115610d4357610d4361116a565b6040519080825280601f01601f191660200182016040528015610d6d576020820181803683370190505b5090508181016020015b600019016f181899199a1a9b1b9c1cb0b131b232b360811b600a86061a8153600a8504945084610d7757509392505050565b60006001600160a01b0384163b15610e9f57604051630a85bd0160e11b81526001600160a01b0385169063150b7a0290610ded903390899088908890600401611439565b6020604051808303816000875af1925050508015610e28575060408051601f3d908101601f19168201909252610e2591810190611476565b60015b610e85573d808015610e56576040519150601f19603f3d011682016040523d82523d6000602084013e610e5b565b606091505b508051600003610e7d5760405162461bcd60e51b8152600401610408906113e7565b805181602001fd5b6001600160e01b031916630a85bd0160e11b14905061091e565b506001949350505050565b60008072184f03e93ff9f4daa797ed6e38ed64bf6a1f0160401b8310610ee95772184f03e93ff9f4daa797ed6e38ed64bf6a1f0160401b830492506040015b6d04ee2d6d415b85acef81000000008310610f15576d04ee2d6d415b85acef8100000000830492506020015b662386f26fc100008310610f3357662386f26fc10000830492506010015b6305f5e1008310610f4b576305f5e100830492506008015b6127108310610f5f57612710830492506004015b60648310610f71576064830492506002015b600a83106102d55760010192915050565b6001600160e01b03198116811461083657600080fd5b600060208284031215610faa57600080fd5b81356107d081610f82565b60005b83811015610fd0578181015183820152602001610fb8565b8381111561074d5750506000910152565b60008151808452610ff9816020860160208601610fb5565b601f01601f19169290920160200192915050565b6020815260006107d06020830184610fe1565b60006020828403121561103257600080fd5b5035919050565b80356001600160a01b038116811461105057600080fd5b919050565b6000806040838503121561106857600080fd5b61107183611039565b946020939093013593505050565b60008060006060848603121561109457600080fd5b61109d84611039565b92506110ab60208501611039565b9150604084013590509250925092565b602080825282518282018190526000919060409081850190868401855b82811015611106578151805185528601516001600160a01b03168685015292840192908501906001016110d8565b5091979650505050505050565b60006020828403121561112557600080fd5b6107d082611039565b6000806040838503121561114157600080fd5b61114a83611039565b91506020830135801515811461115f57600080fd5b809150509250929050565b634e487b7160e01b600052604160045260246000fd5b6000806000806080858703121561119657600080fd5b61119f85611039565b93506111ad60208601611039565b925060408501359150606085013567ffffffffffffffff808211156111d157600080fd5b818701915087601f8301126111e557600080fd5b8135818111156111f7576111f761116a565b604051601f8201601f19908116603f0116810190838211818310171561121f5761121f61116a565b816040528281528a602084870101111561123857600080fd5b82602086016020830137600060208483010152809550505050505092959194509250565b6000806040838503121561126f57600080fd5b61127883611039565b915061128660208401611039565b90509250929050565b600181811c908216806112a357607f821691505b6020821081036112c357634e487b7160e01b600052602260045260246000fd5b50919050565b6020808252602d908201527f4552433732313a2063616c6c6572206973206e6f7420746f6b656e206f776e6560408201526c1c881bdc88185c1c1c9bdd9959609a1b606082015260800190565b634e487b7160e01b600052601160045260246000fd5b6000821982111561133f5761133f611316565b500190565b634e487b7160e01b600052603260045260246000fd5b60006001820161136c5761136c611316565b5060010190565b60008351611385818460208801610fb5565b835190830190611399818360208801610fb5565b01949350505050565b60208082526025908201527f4552433732313a207472616e736665722066726f6d20696e636f72726563742060408201526437bbb732b960d91b606082015260800190565b60208082526032908201527f4552433732313a207472616e7366657220746f206e6f6e20455243373231526560408201527131b2b4bb32b91034b6b83632b6b2b73a32b960711b606082015260800190565b6001600160a01b038581168252841660208201526040810183905260806060820181905260009061146c90830184610fe1565b9695505050505050565b60006020828403121561148857600080fd5b81516107d081610f8256fea264697066735822122093dd4e168b306d1bdc728d8688b3adf57014cbb09d2aa6421ff4202840376b7564736f6c634300080d0033a2646970667358221220cc2ee10cdb04e46324c61df9f0ba0664b4be3e64b4c662fa51992109efdabe9e64736f6c634300080d0033",
  "linkReferences": {},
  "deployedLinkReferences": {}
}