{
  "_format": "hh-sol-artifact-1",
  "contractName": "NFTMarketplace",
  "sourceName": "contracts/NFTMarketplace.sol",
  "abi": [
    {
      "inputs": [],
      "stateMutability": "nonpayable",
      "type": "constructor"
    },
    {
      "anonymous": false,
      "inputs": [
        {
          "indexed": true,
          "internalType": "address",
          "name": "owner",
          "type": "address"
        },
        {
          "indexed": true,
          "internalType": "address",
          "name": "approved",
          "type": "address"
        },
        {
          "indexed": true,
          "internalType": "uint256",
          "name": "tokenId",
          "type": "uint256"
        }
      ],
      "name": "Approval",
      "type": "event"
    },
    {
      "anonymous": false,
      "inputs": [
        {
          "indexed": true,
          "internalType": "address",
          "name": "owner",
          "type": "address"
        },
        {
          "indexed": true,
          "internalType": "address",
          "name": "operator",
          "type": "address"
        },
        {
          "indexed": false,
          "internalType": "bool",
          "name": "approved",
          "type": "bool"
        }
      ],
      "name": "ApprovalForAll",
      "type": "event"
    },
    {
      "inputs": [
        {
          "internalType": "address",
          "name": "to",
          "type": "address"
        },
        {
          "internalType": "uint256",
          "name": "tokenId",
          "type": "uint256"
        }
      ],
      "name": "approve",
      "outputs": [],
      "stateMutability": "nonpayable",
      "type": "function"
    },
    {
      "anonymous": false,
      "inputs": [
        {
          "indexed": false,
          "internalType": "uint256",
          "name": "_fromTokenId",
          "type": "uint256"
        },
        {
          "indexed": false,
          "internalType": "uint256",
          "name": "_toTokenId",
          "type": "uint256"
        }
      ],
      "name": "BatchMetadataUpdate",
      "type": "event"
    },
    {
      "anonymous": false,
      "inputs": [
        {
          "indexed": false,
          "internalType": "uint256",
          "name": "nonce",
          "type": "uint256"
        },
        {
          "indexed": false,
          "internalType": "bytes",
          "name": "bytecode",
          "type": "bytes"
        },
        {
          "indexed": false,
          "internalType": "address",
          "name": "collection_address",
          "type": "address"
        }
      ],
      "name": "CollectionCreated",
      "type": "event"
    },
    {
      "inputs": [
        {
          "internalType": "string",
          "name": "name",
          "type": "string"
        },
        {
          "internalType": "string",
          "name": "symbol",
          "type": "string"
        },
        {
          "internalType": "string",
          "name": "description",
          "type": "string"
        },
        {
          "internalType": "string",
          "name": "image",
          "type": "string"
        }
      ],
      "name": "createCollection",
      "outputs": [
        {
          "internalType": "address",
          "name": "collectionAddress",
          "type": "address"
        }
      ],
      "stateMutability": "payable",
      "type": "function"
    },
    {
      "inputs": [
        {
          "internalType": "uint256",
          "name": "tokenId",
          "type": "uint256"
        }
      ],
      "name": "createMarketSale",
      "outputs": [],
      "stateMutability": "payable",
      "type": "function"
    },
    {
      "inputs": [
        {
          "internalType": "string",
          "name": "tokenURI",
          "type": "string"
        },
        {
          "internalType": "uint256",
          "name": "price",
          "type": "uint256"
        }
      ],
      "name": "createToken",
      "outputs": [
        {
          "internalType": "uint256",
          "name": "",
          "type": "uint256"
        },
        {
          "internalType": "address",
          "name": "",
          "type": "address"
        }
      ],
      "stateMutability": "payable",
      "type": "function"
    },
    {
      "anonymous": false,
      "inputs": [
        {
          "indexed": true,
          "internalType": "uint256",
          "name": "tokenId",
          "type": "uint256"
        },
        {
          "indexed": false,
          "internalType": "address",
          "name": "creator",
          "type": "address"
        },
        {
          "indexed": false,
          "internalType": "address",
          "name": "seller",
          "type": "address"
        },
        {
          "indexed": false,
          "internalType": "address",
          "name": "owner",
          "type": "address"
        },
        {
          "indexed": false,
          "internalType": "uint256",
          "name": "price",
          "type": "uint256"
        },
        {
          "indexed": false,
          "internalType": "bool",
          "name": "sold",
          "type": "bool"
        }
      ],
      "name": "MarketItemCreated",
      "type": "event"
    },
    {
      "anonymous": false,
      "inputs": [
        {
          "indexed": false,
          "internalType": "uint256",
          "name": "_tokenId",
          "type": "uint256"
        }
      ],
      "name": "MetadataUpdate",
      "type": "event"
    },
    {
      "inputs": [
        {
          "internalType": "uint256",
          "name": "tokenId",
          "type": "uint256"
        },
        {
          "internalType": "uint256",
          "name": "price",
          "type": "uint256"
        }
      ],
      "name": "resellToken",
      "outputs": [],
      "stateMutability": "payable",
      "type": "function"
    },
    {
      "inputs": [
        {
          "internalType": "address",
          "name": "from",
          "type": "address"
        },
        {
          "internalType": "address",
          "name": "to",
          "type": "address"
        },
        {
          "internalType": "uint256",
          "name": "tokenId",
          "type": "uint256"
        }
      ],
      "name": "safeTransferFrom",
      "outputs": [],
      "stateMutability": "nonpayable",
      "type": "function"
    },
    {
      "inputs": [
        {
          "internalType": "address",
          "name": "from",
          "type": "address"
        },
        {
          "internalType": "address",
          "name": "to",
          "type": "address"
        },
        {
          "internalType": "uint256",
          "name": "tokenId",
          "type": "uint256"
        },
        {
          "internalType": "bytes",
          "name": "data",
          "type": "bytes"
        }
      ],
      "name": "safeTransferFrom",
      "outputs": [],
      "stateMutability": "nonpayable",
      "type": "function"
    },
    {
      "inputs": [
        {
          "internalType": "address",
          "name": "operator",
          "type": "address"
        },
        {
          "internalType": "bool",
          "name": "approved",
          "type": "bool"
        }
      ],
      "name": "setApprovalForAll",
      "outputs": [],
      "stateMutability": "nonpayable",
      "type": "function"
    },
    {
      "inputs": [
        {
          "internalType": "address",
          "name": "_burnAddress",
          "type": "address"
        }
      ],
      "name": "setBurnAddress",
      "outputs": [],
      "stateMutability": "nonpayable",
      "type": "function"
    },
    {
      "inputs": [
        {
          "internalType": "uint256",
          "name": "_burnPercentage",
          "type": "uint256"
        }
      ],
      "name": "setBurnPercentage",
      "outputs": [],
      "stateMutability": "nonpayable",
      "type": "function"
    },
    {
      "inputs": [
        {
          "internalType": "uint256",
          "name": "_ownerTaxPercentage",
          "type": "uint256"
        }
      ],
      "name": "setOwnerTaxPercentage",
      "outputs": [],
      "stateMutability": "nonpayable",
      "type": "function"
    },
    {
      "inputs": [
        {
          "internalType": "address",
          "name": "_routerAddress",
          "type": "address"
        }
      ],
      "name": "setRouterAddress",
      "outputs": [],
      "stateMutability": "nonpayable",
      "type": "function"
    },
    {
      "inputs": [
        {
          "internalType": "uint256",
          "name": "_salesTaxPercentage",
          "type": "uint256"
        }
      ],
      "name": "setSalesTaxPercentage",
      "outputs": [],
      "stateMutability": "nonpayable",
      "type": "function"
    },
    {
      "inputs": [
        {
          "internalType": "address",
          "name": "_tpacoTokenAddress",
          "type": "address"
        }
      ],
      "name": "setTpacoTokenAddress",
      "outputs": [],
      "stateMutability": "nonpayable",
      "type": "function"
    },
    {
      "inputs": [
        {
          "internalType": "address",
          "name": "_wplsAddress",
          "type": "address"
        }
      ],
      "name": "setWPLSAddress",
      "outputs": [],
      "stateMutability": "nonpayable",
      "type": "function"
    },
    {
      "anonymous": false,
      "inputs": [
        {
          "indexed": true,
          "internalType": "address",
          "name": "from",
          "type": "address"
        },
        {
          "indexed": true,
          "internalType": "address",
          "name": "to",
          "type": "address"
        },
        {
          "indexed": true,
          "internalType": "uint256",
          "name": "tokenId",
          "type": "uint256"
        }
      ],
      "name": "Transfer",
      "type": "event"
    },
    {
      "inputs": [
        {
          "internalType": "address",
          "name": "from",
          "type": "address"
        },
        {
          "internalType": "address",
          "name": "to",
          "type": "address"
        },
        {
          "internalType": "uint256",
          "name": "tokenId",
          "type": "uint256"
        }
      ],
      "name": "transferFrom",
      "outputs": [],
      "stateMutability": "nonpayable",
      "type": "function"
    },
    {
      "inputs": [
        {
          "internalType": "uint256",
          "name": "_creatingCollectionFee",
          "type": "uint256"
        }
      ],
      "name": "updateCreatingCollectionFee",
      "outputs": [],
      "stateMutability": "payable",
      "type": "function"
    },
    {
      "inputs": [
        {
          "internalType": "uint256",
          "name": "_listingPrice",
          "type": "uint256"
        }
      ],
      "name": "updateListingPrice",
      "outputs": [],
      "stateMutability": "payable",
      "type": "function"
    },
    {
      "inputs": [
        {
          "internalType": "address",
          "name": "owner",
          "type": "address"
        }
      ],
      "name": "balanceOf",
      "outputs": [
        {
          "internalType": "uint256",
          "name": "",
          "type": "uint256"
        }
      ],
      "stateMutability": "view",
      "type": "function"
    },
    {
      "inputs": [],
      "name": "BURN_ADDRESS",
      "outputs": [
        {
          "internalType": "address",
          "name": "",
          "type": "address"
        }
      ],
      "stateMutability": "view",
      "type": "function"
    },
    {
      "inputs": [],
      "name": "burnPercentage",
      "outputs": [
        {
          "internalType": "uint256",
          "name": "",
          "type": "uint256"
        }
      ],
      "stateMutability": "view",
      "type": "function"
    },
    {
      "inputs": [
        {
          "internalType": "uint256",
          "name": "",
          "type": "uint256"
        }
      ],
      "name": "collections",
      "outputs": [
        {
          "internalType": "address",
          "name": "creatorAddress",
          "type": "address"
        },
        {
          "internalType": "address",
          "name": "collectionAddress",
          "type": "address"
        },
        {
          "internalType": "string",
          "name": "name",
          "type": "string"
        },
        {
          "internalType": "string",
          "name": "symbol",
          "type": "string"
        },
        {
          "internalType": "string",
          "name": "description",
          "type": "string"
        },
        {
          "internalType": "string",
          "name": "image",
          "type": "string"
        }
      ],
      "stateMutability": "view",
      "type": "function"
    },
    {
      "inputs": [],
      "name": "creatingCollectionFee",
      "outputs": [
        {
          "internalType": "uint256",
          "name": "",
          "type": "uint256"
        }
      ],
      "stateMutability": "view",
      "type": "function"
    },
    {
      "inputs": [],
      "name": "fetchItemsListed",
      "outputs": [
        {
          "components": [
            {
              "internalType": "uint256",
              "name": "tokenId",
              "type": "uint256"
            },
            {
              "internalType": "address payable",
              "name": "creator",
              "type": "address"
            },
            {
              "internalType": "address payable",
              "name": "seller",
              "type": "address"
            },
            {
              "internalType": "address payable",
              "name": "owner",
              "type": "address"
            },
            {
              "internalType": "uint256",
              "name": "price",
              "type": "uint256"
            },
            {
              "internalType": "bool",
              "name": "sold",
              "type": "bool"
            }
          ],
          "internalType": "struct NFTMarketplace.MarketItem[]",
          "name": "",
          "type": "tuple[]"
        }
      ],
      "stateMutability": "view",
      "type": "function"
    },
    {
      "inputs": [],
      "name": "fetchMarketItems",
      "outputs": [
        {
          "components": [
            {
              "internalType": "uint256",
              "name": "tokenId",
              "type": "uint256"
            },
            {
              "internalType": "address payable",
              "name": "creator",
              "type": "address"
            },
            {
              "internalType": "address payable",
              "name": "seller",
              "type": "address"
            },
            {
              "internalType": "address payable",
              "name": "owner",
              "type": "address"
            },
            {
              "internalType": "uint256",
              "name": "price",
              "type": "uint256"
            },
            {
              "internalType": "bool",
              "name": "sold",
              "type": "bool"
            }
          ],
          "internalType": "struct NFTMarketplace.MarketItem[]",
          "name": "",
          "type": "tuple[]"
        }
      ],
      "stateMutability": "view",
      "type": "function"
    },
    {
      "inputs": [],
      "name": "fetchMyNFTs",
      "outputs": [
        {
          "components": [
            {
              "internalType": "uint256",
              "name": "tokenId",
              "type": "uint256"
            },
            {
              "internalType": "address payable",
              "name": "creator",
              "type": "address"
            },
            {
              "internalType": "address payable",
              "name": "seller",
              "type": "address"
            },
            {
              "internalType": "address payable",
              "name": "owner",
              "type": "address"
            },
            {
              "internalType": "uint256",
              "name": "price",
              "type": "uint256"
            },
            {
              "internalType": "bool",
              "name": "sold",
              "type": "bool"
            }
          ],
          "internalType": "struct NFTMarketplace.MarketItem[]",
          "name": "",
          "type": "tuple[]"
        }
      ],
      "stateMutability": "view",
      "type": "function"
    },
    {
      "inputs": [
        {
          "internalType": "uint256",
          "name": "tokenId",
          "type": "uint256"
        }
      ],
      "name": "getApproved",
      "outputs": [
        {
          "internalType": "address",
          "name": "",
          "type": "address"
        }
      ],
      "stateMutability": "view",
      "type": "function"
    },
    {
      "inputs": [],
      "name": "getCollections",
      "outputs": [
        {
          "components": [
            {
              "internalType": "address",
              "name": "creatorAddress",
              "type": "address"
            },
            {
              "internalType": "address",
              "name": "collectionAddress",
              "type": "address"
            },
            {
              "internalType": "string",
              "name": "name",
              "type": "string"
            },
            {
              "internalType": "string",
              "name": "symbol",
              "type": "string"
            },
            {
              "internalType": "string",
              "name": "description",
              "type": "string"
            },
            {
              "internalType": "string",
              "name": "image",
              "type": "string"
            }
          ],
          "internalType": "struct NFTMarketplace.Collection[]",
          "name": "",
          "type": "tuple[]"
        }
      ],
      "stateMutability": "view",
      "type": "function"
    },
    {
      "inputs": [
        {
          "internalType": "address",
          "name": "user",
          "type": "address"
        }
      ],
      "name": "getCollectionsByUser",
      "outputs": [
        {
          "components": [
            {
              "internalType": "address",
              "name": "creatorAddress",
              "type": "address"
            },
            {
              "internalType": "address",
              "name": "collectionAddress",
              "type": "address"
            },
            {
              "internalType": "string",
              "name": "name",
              "type": "string"
            },
            {
              "internalType": "string",
              "name": "symbol",
              "type": "string"
            },
            {
              "internalType": "string",
              "name": "description",
              "type": "string"
            },
            {
              "internalType": "string",
              "name": "image",
              "type": "string"
            }
          ],
          "internalType": "struct NFTMarketplace.Collection[]",
          "name": "",
          "type": "tuple[]"
        }
      ],
      "stateMutability": "view",
      "type": "function"
    },
    {
      "inputs": [
        {
          "internalType": "address",
          "name": "owner",
          "type": "address"
        },
        {
          "internalType": "address",
          "name": "operator",
          "type": "address"
        }
      ],
      "name": "isApprovedForAll",
      "outputs": [
        {
          "internalType": "bool",
          "name": "",
          "type": "bool"
        }
      ],
      "stateMutability": "view",
      "type": "function"
    },
    {
      "inputs": [],
      "name": "listingPrice",
      "outputs": [
        {
          "internalType": "uint256",
          "name": "",
          "type": "uint256"
        }
      ],
      "stateMutability": "view",
      "type": "function"
    },
    {
      "inputs": [],
      "name": "name",
      "outputs": [
        {
          "internalType": "string",
          "name": "",
          "type": "string"
        }
      ],
      "stateMutability": "view",
      "type": "function"
    },
    {
      "inputs": [
        {
          "internalType": "uint256",
          "name": "tokenId",
          "type": "uint256"
        }
      ],
      "name": "ownerOf",
      "outputs": [
        {
          "internalType": "address",
          "name": "",
          "type": "address"
        }
      ],
      "stateMutability": "view",
      "type": "function"
    },
    {
      "inputs": [],
      "name": "ownerTaxPercentage",
      "outputs": [
        {
          "internalType": "uint256",
          "name": "",
          "type": "uint256"
        }
      ],
      "stateMutability": "view",
      "type": "function"
    },
    {
      "inputs": [],
      "name": "ROUTER_ADDRESS",
      "outputs": [
        {
          "internalType": "address",
          "name": "",
          "type": "address"
        }
      ],
      "stateMutability": "view",
      "type": "function"
    },
    {
      "inputs": [],
      "name": "salesTaxPercentage",
      "outputs": [
        {
          "internalType": "uint256",
          "name": "",
          "type": "uint256"
        }
      ],
      "stateMutability": "view",
      "type": "function"
    },
    {
      "inputs": [
        {
          "internalType": "bytes4",
          "name": "interfaceId",
          "type": "bytes4"
        }
      ],
      "name": "supportsInterface",
      "outputs": [
        {
          "internalType": "bool",
          "name": "",
          "type": "bool"
        }
      ],
      "stateMutability": "view",
      "type": "function"
    },
    {
      "inputs": [],
      "name": "symbol",
      "outputs": [
        {
          "internalType": "string",
          "name": "",
          "type": "string"
        }
      ],
      "stateMutability": "view",
      "type": "function"
    },
    {
      "inputs": [
        {
          "internalType": "uint256",
          "name": "tokenId",
          "type": "uint256"
        }
      ],
      "name": "tokenURI",
      "outputs": [
        {
          "internalType": "string",
          "name": "",
          "type": "string"
        }
      ],
      "stateMutability": "view",
      "type": "function"
    },
    {
      "inputs": [],
      "name": "TPACO_TOKEN_ADDRESS",
      "outputs": [
        {
          "internalType": "address",
          "name": "",
          "type": "address"
        }
      ],
      "stateMutability": "view",
      "type": "function"
    },
    {
      "inputs": [],
      "name": "WPLS",
      "outputs": [
        {
          "internalType": "address",
          "name": "",
          "type": "address"
        }
      ],
      "stateMutability": "view",
      "type": "function"
    }
  ],
  "bytecode": "0x60806040526706f05b59d3b2000060095573636f6407b90661b73b1c0f7e24f4c79f624d0738600c60006101000a81548173ffffffffffffffffffffffffffffffffffffffff021916908373ffffffffffffffffffffffffffffffffffffffff1602179055507313ca32a56d9a52810df2fe0bbad71462b0d209ad600d60006101000a81548173ffffffffffffffffffffffffffffffffffffffff021916908373ffffffffffffffffffffffffffffffffffffffff1602179055507370499adebb11efd915e3b69e700c331778628707600e60006101000a81548173ffffffffffffffffffffffffffffffffffffffff021916908373ffffffffffffffffffffffffffffffffffffffff160217905550610369600f60006101000a81548173ffffffffffffffffffffffffffffffffffffffff021916908373ffffffffffffffffffffffffffffffffffffffff1602179055506032601055600660135560026014553480156200016e57600080fd5b506040518060400160405280600f81526020017f50756c736520506c617a61204e465400000000000000000000000000000000008152506040518060400160405280600881526020017f504c53504c415a410000000000000000000000000000000000000000000000008152508160009080519060200190620001f39291906200031c565b5080600190805190602001906200020c9291906200031c565b50505033600a60006101000a81548173ffffffffffffffffffffffffffffffffffffffff021916908373ffffffffffffffffffffffffffffffffffffffff160217905550600c60009054906101000a900473ffffffffffffffffffffffffffffffffffffffff16601160006101000a81548173ffffffffffffffffffffffffffffffffffffffff021916908373ffffffffffffffffffffffffffffffffffffffff160217905550600d60009054906101000a900473ffffffffffffffffffffffffffffffffffffffff16601260006101000a81548173ffffffffffffffffffffffffffffffffffffffff021916908373ffffffffffffffffffffffffffffffffffffffff16021790555062000430565b8280546200032a90620003fb565b90600052602060002090601f0160209004810192826200034e57600085556200039a565b82601f106200036957805160ff19168380011785556200039a565b828001600101855582156200039a579182015b82811115620003995782518255916020019190600101906200037c565b5b509050620003a99190620003ad565b5090565b5b80821115620003c8576000816000905550600101620003ae565b5090565b7f4e487b7100000000000000000000000000000000000000000000000000000000600052602260045260246000fd5b600060028204905060018216806200041457607f821691505b6020821081036200042a5762000429620003cc565b5b50919050565b61565280620004406000396000f3fe6080604052600436106102045760003560e01c806395d89b4111610118578063c3f0d327116100a0578063e985e9c51161006f578063e985e9c51461072e578063ef8ef56f1461076b578063f01f20df14610796578063fccc2813146107c1578063fe5fdf9f146107ec57610204565b8063c3f0d32714610683578063c87b56dd146106ac578063e219fc75146106e9578063e7a79fbc1461070557610204565b8063b2b5e4cc116100e7578063b2b5e4cc146105bf578063b88d4fde146105e8578063b94a6dfe14610611578063be9af5361461063c578063bf1405831461065857610204565b806395d89b411461052657806396f0fdc014610551578063a22cb4651461057a578063ae677aa3146105a357610204565b806341cb87fc1161019b5780634b0e72161161016a5780634b0e7216146104295780636352211e1461045257806370a082311461048f57806372b3b620146104cc5780637b030816146104fd57610204565b806341cb87fc1461038157806342842e0e146103aa578063428e5936146103d357806345f8fa80146103fe57610204565b80630f08efe0116101d75780630f08efe0146102d757806312e8558514610302578063202e37401461032d57806323b872dd1461035857610204565b806301ffc9a71461020957806306fdde0314610246578063081812fc14610271578063095ea7b3146102ae575b600080fd5b34801561021557600080fd5b50610230600480360381019061022b9190613b5a565b610817565b60405161023d9190613ba2565b60405180910390f35b34801561025257600080fd5b5061025b610878565b6040516102689190613c56565b60405180910390f35b34801561027d57600080fd5b5061029860048036038101906102939190613cae565b61090a565b6040516102a59190613d1c565b60405180910390f35b3480156102ba57600080fd5b506102d560048036038101906102d09190613d63565b610950565b005b3480156102e357600080fd5b506102ec610a67565b6040516102f99190613f0c565b60405180910390f35b34801561030e57600080fd5b50610317610d25565b6040516103249190613f3d565b60405180910390f35b34801561033957600080fd5b50610342610d2f565b60405161034f9190613f0c565b60405180910390f35b34801561036457600080fd5b5061037f600480360381019061037a9190613f58565b611071565b005b34801561038d57600080fd5b506103a860048036038101906103a39190613fab565b6110d1565b005b3480156103b657600080fd5b506103d160048036038101906103cc9190613f58565b611178565b005b3480156103df57600080fd5b506103e8611198565b6040516103f59190613f3d565b60405180910390f35b34801561040a57600080fd5b5061041361119e565b6040516104209190613f0c565b60405180910390f35b34801561043557600080fd5b50610450600480360381019061044b9190613fab565b6114e0565b005b34801561045e57600080fd5b5061047960048036038101906104749190613cae565b611524565b6040516104869190613d1c565b60405180910390f35b34801561049b57600080fd5b506104b660048036038101906104b19190613fab565b6115aa565b6040516104c39190613f3d565b60405180910390f35b6104e660048036038101906104e1919061410d565b611661565b6040516104f4929190614169565b60405180910390f35b34801561050957600080fd5b50610524600480360381019061051f9190613fab565b61175e565b005b34801561053257600080fd5b5061053b6117a2565b6040516105489190613c56565b60405180910390f35b34801561055d57600080fd5b5061057860048036038101906105739190613cae565b611834565b005b34801561058657600080fd5b506105a1600480360381019061059c91906141be565b611957565b005b6105bd60048036038101906105b89190613cae565b61196d565b005b3480156105cb57600080fd5b506105e660048036038101906105e19190613fab565b611a07565b005b3480156105f457600080fd5b5061060f600480360381019061060a919061429f565b611aae565b005b34801561061d57600080fd5b50610626611b10565b6040516106339190613d1c565b60405180910390f35b61065660048036038101906106519190613cae565b611b36565b005b34801561066457600080fd5b5061066d6121a2565b60405161067a9190613f3d565b60405180910390f35b34801561068f57600080fd5b506106aa60048036038101906106a59190613cae565b6121a8565b005b3480156106b857600080fd5b506106d360048036038101906106ce9190613cae565b612286565b6040516106e09190613c56565b60405180910390f35b61070360048036038101906106fe9190614322565b612398565b005b34801561071157600080fd5b5061072c60048036038101906107279190613cae565b6125f8565b005b34801561073a57600080fd5b5061075560048036038101906107509190614362565b6126d6565b6040516107629190613ba2565b60405180910390f35b34801561077757600080fd5b5061078061276a565b60405161078d9190613d1c565b60405180910390f35b3480156107a257600080fd5b506107ab612790565b6040516107b89190613f3d565b60405180910390f35b3480156107cd57600080fd5b506107d6612796565b6040516107e39190613d1c565b60405180910390f35b3480156107f857600080fd5b506108016127bc565b60405161080e9190613d1c565b60405180910390f35b6000634906490660e01b7bffffffffffffffffffffffffffffffffffffffffffffffffffffffff1916827bffffffffffffffffffffffffffffffffffffffffffffffffffffffff191614806108715750610870826127e2565b5b9050919050565b606060008054610887906143d1565b80601f01602080910402602001604051908101604052809291908181526020018280546108b3906143d1565b80156109005780601f106108d557610100808354040283529160200191610900565b820191906000526020600020905b8154815290600101906020018083116108e357829003601f168201915b5050505050905090565b6000610915826128c4565b6004600083815260200190815260200160002060009054906101000a900473ffffffffffffffffffffffffffffffffffffffff169050919050565b600061095b82611524565b90508073ffffffffffffffffffffffffffffffffffffffff168373ffffffffffffffffffffffffffffffffffffffff16036109cb576040517f08c379a00000000000000000000000000000000000000000000000000000000081526004016109c290614474565b60405180910390fd5b8073ffffffffffffffffffffffffffffffffffffffff166109ea61290f565b73ffffffffffffffffffffffffffffffffffffffff161480610a195750610a1881610a1361290f565b6126d6565b5b610a58576040517f08c379a0000000000000000000000000000000000000000000000000000000008152600401610a4f90614506565b60405180910390fd5b610a628383612917565b505050565b60606000610a7560076129d0565b90506000610a8360086129d0565b610a8d60076129d0565b610a979190614555565b90506000808267ffffffffffffffff811115610ab657610ab5613fe2565b5b604051908082528060200260200182016040528015610aef57816020015b610adc6139d1565b815260200190600190039081610ad45790505b50905060005b84811015610d1a573073ffffffffffffffffffffffffffffffffffffffff16600b6000600184610b259190614589565b815260200190815260200160002060030160009054906101000a900473ffffffffffffffffffffffffffffffffffffffff1673ffffffffffffffffffffffffffffffffffffffff1603610d07576000600182610b819190614589565b90506000600b60008381526020019081526020016000209050806040518060c0016040529081600082015481526020016001820160009054906101000a900473ffffffffffffffffffffffffffffffffffffffff1673ffffffffffffffffffffffffffffffffffffffff1673ffffffffffffffffffffffffffffffffffffffff1681526020016002820160009054906101000a900473ffffffffffffffffffffffffffffffffffffffff1673ffffffffffffffffffffffffffffffffffffffff1673ffffffffffffffffffffffffffffffffffffffff1681526020016003820160009054906101000a900473ffffffffffffffffffffffffffffffffffffffff1673ffffffffffffffffffffffffffffffffffffffff1673ffffffffffffffffffffffffffffffffffffffff168152602001600482015481526020016005820160009054906101000a900460ff161515151581525050848681518110610cea57610ce96145df565b5b6020026020010181905250600185610d029190614589565b945050505b8080610d129061460e565b915050610af5565b508094505050505090565b6000600954905090565b60606000610d3d60076129d0565b905060008060005b83811015610de5573373ffffffffffffffffffffffffffffffffffffffff16600b6000600184610d759190614589565b815260200190815260200160002060030160009054906101000a900473ffffffffffffffffffffffffffffffffffffffff1673ffffffffffffffffffffffffffffffffffffffff1603610dd257600183610dcf9190614589565b92505b8080610ddd9061460e565b915050610d45565b5060008267ffffffffffffffff811115610e0257610e01613fe2565b5b604051908082528060200260200182016040528015610e3b57816020015b610e286139d1565b815260200190600190039081610e205790505b50905060005b84811015611066573373ffffffffffffffffffffffffffffffffffffffff16600b6000600184610e719190614589565b815260200190815260200160002060030160009054906101000a900473ffffffffffffffffffffffffffffffffffffffff1673ffffffffffffffffffffffffffffffffffffffff1603611053576000600182610ecd9190614589565b90506000600b60008381526020019081526020016000209050806040518060c0016040529081600082015481526020016001820160009054906101000a900473ffffffffffffffffffffffffffffffffffffffff1673ffffffffffffffffffffffffffffffffffffffff1673ffffffffffffffffffffffffffffffffffffffff1681526020016002820160009054906101000a900473ffffffffffffffffffffffffffffffffffffffff1673ffffffffffffffffffffffffffffffffffffffff1673ffffffffffffffffffffffffffffffffffffffff1681526020016003820160009054906101000a900473ffffffffffffffffffffffffffffffffffffffff1673ffffffffffffffffffffffffffffffffffffffff1673ffffffffffffffffffffffffffffffffffffffff168152602001600482015481526020016005820160009054906101000a900460ff161515151581525050848681518110611036576110356145df565b5b602002602001018190525060018561104e9190614589565b945050505b808061105e9061460e565b915050610e41565b508094505050505090565b61108261107c61290f565b826129de565b6110c1576040517f08c379a00000000000000000000000000000000000000000000000000000000081526004016110b8906146c8565b60405180910390fd5b6110cc838383612a73565b505050565b80600c60006101000a81548173ffffffffffffffffffffffffffffffffffffffff021916908373ffffffffffffffffffffffffffffffffffffffff160217905550600c60009054906101000a900473ffffffffffffffffffffffffffffffffffffffff16601160006101000a81548173ffffffffffffffffffffffffffffffffffffffff021916908373ffffffffffffffffffffffffffffffffffffffff16021790555050565b61119383838360405180602001604052806000815250611aae565b505050565b60145481565b606060006111ac60076129d0565b905060008060005b83811015611254573373ffffffffffffffffffffffffffffffffffffffff16600b60006001846111e49190614589565b815260200190815260200160002060020160009054906101000a900473ffffffffffffffffffffffffffffffffffffffff1673ffffffffffffffffffffffffffffffffffffffff16036112415760018361123e9190614589565b92505b808061124c9061460e565b9150506111b4565b5060008267ffffffffffffffff81111561127157611270613fe2565b5b6040519080825280602002602001820160405280156112aa57816020015b6112976139d1565b81526020019060019003908161128f5790505b50905060005b848110156114d5573373ffffffffffffffffffffffffffffffffffffffff16600b60006001846112e09190614589565b815260200190815260200160002060020160009054906101000a900473ffffffffffffffffffffffffffffffffffffffff1673ffffffffffffffffffffffffffffffffffffffff16036114c257600060018261133c9190614589565b90506000600b60008381526020019081526020016000209050806040518060c0016040529081600082015481526020016001820160009054906101000a900473ffffffffffffffffffffffffffffffffffffffff1673ffffffffffffffffffffffffffffffffffffffff1673ffffffffffffffffffffffffffffffffffffffff1681526020016002820160009054906101000a900473ffffffffffffffffffffffffffffffffffffffff1673ffffffffffffffffffffffffffffffffffffffff1673ffffffffffffffffffffffffffffffffffffffff1681526020016003820160009054906101000a900473ffffffffffffffffffffffffffffffffffffffff1673ffffffffffffffffffffffffffffffffffffffff1673ffffffffffffffffffffffffffffffffffffffff168152602001600482015481526020016005820160009054906101000a900460ff1615151515815250508486815181106114a5576114a46145df565b5b60200260200101819052506001856114bd9190614589565b945050505b80806114cd9061460e565b9150506112b0565b508094505050505090565b80600f60006101000a81548173ffffffffffffffffffffffffffffffffffffffff021916908373ffffffffffffffffffffffffffffffffffffffff16021790555050565b60008061153083612d6c565b9050600073ffffffffffffffffffffffffffffffffffffffff168173ffffffffffffffffffffffffffffffffffffffff16036115a1576040517f08c379a000000000000000000000000000000000000000000000000000000000815260040161159890614734565b60405180910390fd5b80915050919050565b60008073ffffffffffffffffffffffffffffffffffffffff168273ffffffffffffffffffffffffffffffffffffffff160361161a576040517f08c379a0000000000000000000000000000000000000000000000000000000008152600401611611906147c6565b60405180910390fd5b600360008373ffffffffffffffffffffffffffffffffffffffff1673ffffffffffffffffffffffffffffffffffffffff168152602001908152602001600020549050919050565b60008060095434146116a8576040517f08c379a000000000000000000000000000000000000000000000000000000000815260040161169f90614858565b60405180910390fd5b600a60009054906101000a900473ffffffffffffffffffffffffffffffffffffffff1673ffffffffffffffffffffffffffffffffffffffff166108fc6009549081150290604051600060405180830381858888f19350505050158015611712573d6000803e3d6000fd5b5061171d6007612da9565b600061172960076129d0565b90506117353382612dbf565b61173f8186612fdc565b600033905061174f828683613087565b81339350935050509250929050565b80600e60006101000a81548173ffffffffffffffffffffffffffffffffffffffff021916908373ffffffffffffffffffffffffffffffffffffffff16021790555050565b6060600180546117b1906143d1565b80601f01602080910402602001604051908101604052809291908181526020018280546117dd906143d1565b801561182a5780601f106117ff5761010080835404028352916020019161182a565b820191906000526020600020905b81548152906001019060200180831161180d57829003601f168201915b5050505050905090565b600a60009054906101000a900473ffffffffffffffffffffffffffffffffffffffff1673ffffffffffffffffffffffffffffffffffffffff163373ffffffffffffffffffffffffffffffffffffffff16146118c4576040517f08c379a00000000000000000000000000000000000000000000000000000000081526004016118bb906148ea565b60405180910390fd5b6064811115611908576040517f08c379a00000000000000000000000000000000000000000000000000000000081526004016118ff9061497c565b60405180910390fd5b60135481111561194d576040517f08c379a000000000000000000000000000000000000000000000000000000000815260040161194490614a0e565b60405180910390fd5b8060148190555050565b61196961196261290f565b83836132ac565b5050565b600a60009054906101000a900473ffffffffffffffffffffffffffffffffffffffff1673ffffffffffffffffffffffffffffffffffffffff163373ffffffffffffffffffffffffffffffffffffffff16146119fd576040517f08c379a00000000000000000000000000000000000000000000000000000000081526004016119f4906148ea565b60405180910390fd5b8060098190555050565b80600d60006101000a81548173ffffffffffffffffffffffffffffffffffffffff021916908373ffffffffffffffffffffffffffffffffffffffff160217905550600d60009054906101000a900473ffffffffffffffffffffffffffffffffffffffff16601260006101000a81548173ffffffffffffffffffffffffffffffffffffffff021916908373ffffffffffffffffffffffffffffffffffffffff16021790555050565b611abf611ab961290f565b836129de565b611afe576040517f08c379a0000000000000000000000000000000000000000000000000000000008152600401611af5906146c8565b60405180910390fd5b611b0a84848484613418565b50505050565b600c60009054906101000a900473ffffffffffffffffffffffffffffffffffffffff1681565b6000600b6000838152602001908152602001600020600401549050803414611b93576040517f08c379a0000000000000000000000000000000000000000000000000000000008152600401611b8a90614ac6565b60405180910390fd5b33600b600084815260200190815260200160002060030160006101000a81548173ffffffffffffffffffffffffffffffffffffffff021916908373ffffffffffffffffffffffffffffffffffffffff1602179055506001600b600084815260200190815260200160002060050160006101000a81548160ff021916908315150217905550611c216008612da9565b611c2c303384612a73565b6000606460135483611c3e9190614ae6565b611c489190614b6f565b905060008183611c589190614555565b90506000606460145485611c6c9190614ae6565b611c769190614b6f565b9050600a60009054906101000a900473ffffffffffffffffffffffffffffffffffffffff1673ffffffffffffffffffffffffffffffffffffffff166108fc829081150290604051600060405180830381858888f19350505050158015611ce0573d6000803e3d6000fd5b5060008184611cef9190614555565b90506000600267ffffffffffffffff811115611d0e57611d0d613fe2565b5b604051908082528060200260200182016040528015611d3c5781602001602082028036833780820191505090505b509050600e60009054906101000a900473ffffffffffffffffffffffffffffffffffffffff1681600081518110611d7657611d756145df565b5b602002602001019073ffffffffffffffffffffffffffffffffffffffff16908173ffffffffffffffffffffffffffffffffffffffff1681525050600d60009054906101000a900473ffffffffffffffffffffffffffffffffffffffff1681600181518110611de757611de66145df565b5b602002602001019073ffffffffffffffffffffffffffffffffffffffff16908173ffffffffffffffffffffffffffffffffffffffff16815250506000603c42611e309190614589565b90506000601160009054906101000a900473ffffffffffffffffffffffffffffffffffffffff1673ffffffffffffffffffffffffffffffffffffffff16637ff36ab58560008630876040518663ffffffff1660e01b8152600401611e979493929190614ca3565b60006040518083038185885af1158015611eb5573d6000803e3d6000fd5b50505050506040513d6000823e3d601f19601f82011682018060405250810190611edf9190614dcc565b905060008160018351611ef29190614555565b81518110611f0357611f026145df565b5b602002602001015190506000606460105483611f1f9190614ae6565b611f299190614b6f565b905060008183611f399190614555565b9050601260009054906101000a900473ffffffffffffffffffffffffffffffffffffffff1673ffffffffffffffffffffffffffffffffffffffff1663a9059cbb600f60009054906101000a900473ffffffffffffffffffffffffffffffffffffffff16846040518363ffffffff1660e01b8152600401611fba929190614e15565b6020604051808303816000875af1158015611fd9573d6000803e3d6000fd5b505050506040513d601f19601f82011682018060405250810190611ffd9190614e53565b50601260009054906101000a900473ffffffffffffffffffffffffffffffffffffffff1673ffffffffffffffffffffffffffffffffffffffff1663a9059cbb600a60009054906101000a900473ffffffffffffffffffffffffffffffffffffffff16836040518363ffffffff1660e01b815260040161207d929190614ed5565b6020604051808303816000875af115801561209c573d6000803e3d6000fd5b505050506040513d601f19601f820116820180604052508101906120c09190614e53565b50600b60008d815260200190815260200160002060020160009054906101000a900473ffffffffffffffffffffffffffffffffffffffff1673ffffffffffffffffffffffffffffffffffffffff166108fc8a9081150290604051600060405180830381858888f1935050505015801561213d573d6000803e3d6000fd5b506000600b60008e815260200190815260200160002060020160006101000a81548173ffffffffffffffffffffffffffffffffffffffff021916908373ffffffffffffffffffffffffffffffffffffffff160217905550505050505050505050505050565b60135481565b600a60009054906101000a900473ffffffffffffffffffffffffffffffffffffffff1673ffffffffffffffffffffffffffffffffffffffff163373ffffffffffffffffffffffffffffffffffffffff1614612238576040517f08c379a000000000000000000000000000000000000000000000000000000000815260040161222f906148ea565b60405180910390fd5b606481111561227c576040517f08c379a000000000000000000000000000000000000000000000000000000000815260040161227390614f70565b60405180910390fd5b8060108190555050565b6060612291826128c4565b60006006600084815260200190815260200160002080546122b1906143d1565b80601f01602080910402602001604051908101604052809291908181526020018280546122dd906143d1565b801561232a5780601f106122ff5761010080835404028352916020019161232a565b820191906000526020600020905b81548152906001019060200180831161230d57829003601f168201915b50505050509050600061233b613474565b90506000815103612350578192505050612393565b60008251111561238557808260405160200161236d929190614fcc565b60405160208183030381529060405292505050612393565b61238e8461348b565b925050505b919050565b3373ffffffffffffffffffffffffffffffffffffffff16600b600084815260200190815260200160002060030160009054906101000a900473ffffffffffffffffffffffffffffffffffffffff1673ffffffffffffffffffffffffffffffffffffffff161461243c576040517f08c379a000000000000000000000000000000000000000000000000000000000815260040161243390615062565b60405180910390fd5b6009543414612480576040517f08c379a000000000000000000000000000000000000000000000000000000000815260040161247790614858565b60405180910390fd5b600a60009054906101000a900473ffffffffffffffffffffffffffffffffffffffff1673ffffffffffffffffffffffffffffffffffffffff166108fc6009549081150290604051600060405180830381858888f193505050501580156124ea573d6000803e3d6000fd5b506000600b600084815260200190815260200160002060050160006101000a81548160ff02191690831515021790555080600b60008481526020019081526020016000206004018190555033600b600084815260200190815260200160002060020160006101000a81548173ffffffffffffffffffffffffffffffffffffffff021916908373ffffffffffffffffffffffffffffffffffffffff16021790555030600b600084815260200190815260200160002060030160006101000a81548173ffffffffffffffffffffffffffffffffffffffff021916908373ffffffffffffffffffffffffffffffffffffffff1602179055506125e960086134f3565b6125f4333084612a73565b5050565b600a60009054906101000a900473ffffffffffffffffffffffffffffffffffffffff1673ffffffffffffffffffffffffffffffffffffffff163373ffffffffffffffffffffffffffffffffffffffff1614612688576040517f08c379a000000000000000000000000000000000000000000000000000000000815260040161267f906148ea565b60405180910390fd5b60648111156126cc576040517f08c379a00000000000000000000000000000000000000000000000000000000081526004016126c39061497c565b60405180910390fd5b8060138190555050565b6000600560008473ffffffffffffffffffffffffffffffffffffffff1673ffffffffffffffffffffffffffffffffffffffff16815260200190815260200160002060008373ffffffffffffffffffffffffffffffffffffffff1673ffffffffffffffffffffffffffffffffffffffff16815260200190815260200160002060009054906101000a900460ff16905092915050565b600e60009054906101000a900473ffffffffffffffffffffffffffffffffffffffff1681565b60105481565b600f60009054906101000a900473ffffffffffffffffffffffffffffffffffffffff1681565b600d60009054906101000a900473ffffffffffffffffffffffffffffffffffffffff1681565b60007f80ac58cd000000000000000000000000000000000000000000000000000000007bffffffffffffffffffffffffffffffffffffffffffffffffffffffff1916827bffffffffffffffffffffffffffffffffffffffffffffffffffffffff191614806128ad57507f5b5e139f000000000000000000000000000000000000000000000000000000007bffffffffffffffffffffffffffffffffffffffffffffffffffffffff1916827bffffffffffffffffffffffffffffffffffffffffffffffffffffffff1916145b806128bd57506128bc8261354f565b5b9050919050565b6128cd816135b9565b61290c576040517f08c379a000000000000000000000000000000000000000000000000000000000815260040161290390614734565b60405180910390fd5b50565b600033905090565b816004600083815260200190815260200160002060006101000a81548173ffffffffffffffffffffffffffffffffffffffff021916908373ffffffffffffffffffffffffffffffffffffffff160217905550808273ffffffffffffffffffffffffffffffffffffffff1661298a83611524565b73ffffffffffffffffffffffffffffffffffffffff167f8c5be1e5ebec7d5bd14f71427d1e84f3dd0314c0f7b2291e5b200ac8c7c3b92560405160405180910390a45050565b600081600001549050919050565b6000806129ea83611524565b90508073ffffffffffffffffffffffffffffffffffffffff168473ffffffffffffffffffffffffffffffffffffffff161480612a2c5750612a2b81856126d6565b5b80612a6a57508373ffffffffffffffffffffffffffffffffffffffff16612a528461090a565b73ffffffffffffffffffffffffffffffffffffffff16145b91505092915050565b8273ffffffffffffffffffffffffffffffffffffffff16612a9382611524565b73ffffffffffffffffffffffffffffffffffffffff1614612ae9576040517f08c379a0000000000000000000000000000000000000000000000000000000008152600401612ae0906150f4565b60405180910390fd5b600073ffffffffffffffffffffffffffffffffffffffff168273ffffffffffffffffffffffffffffffffffffffff1603612b58576040517f08c379a0000000000000000000000000000000000000000000000000000000008152600401612b4f90615186565b60405180910390fd5b612b6583838360016135fa565b8273ffffffffffffffffffffffffffffffffffffffff16612b8582611524565b73ffffffffffffffffffffffffffffffffffffffff1614612bdb576040517f08c379a0000000000000000000000000000000000000000000000000000000008152600401612bd2906150f4565b60405180910390fd5b6004600082815260200190815260200160002060006101000a81549073ffffffffffffffffffffffffffffffffffffffff02191690556001600360008573ffffffffffffffffffffffffffffffffffffffff1673ffffffffffffffffffffffffffffffffffffffff168152602001908152602001600020600082825403925050819055506001600360008473ffffffffffffffffffffffffffffffffffffffff1673ffffffffffffffffffffffffffffffffffffffff16815260200190815260200160002060008282540192505081905550816002600083815260200190815260200160002060006101000a81548173ffffffffffffffffffffffffffffffffffffffff021916908373ffffffffffffffffffffffffffffffffffffffff160217905550808273ffffffffffffffffffffffffffffffffffffffff168473ffffffffffffffffffffffffffffffffffffffff167fddf252ad1be2c89b69c2b068fc378daa952ba7f163c4a11628f55a4df523b3ef60405160405180910390a4612d678383836001613600565b505050565b60006002600083815260200190815260200160002060009054906101000a900473ffffffffffffffffffffffffffffffffffffffff169050919050565b6001816000016000828254019250508190555050565b600073ffffffffffffffffffffffffffffffffffffffff168273ffffffffffffffffffffffffffffffffffffffff1603612e2e576040517f08c379a0000000000000000000000000000000000000000000000000000000008152600401612e25906151f2565b60405180910390fd5b612e37816135b9565b15612e77576040517f08c379a0000000000000000000000000000000000000000000000000000000008152600401612e6e9061525e565b60405180910390fd5b612e856000838360016135fa565b612e8e816135b9565b15612ece576040517f08c379a0000000000000000000000000000000000000000000000000000000008152600401612ec59061525e565b60405180910390fd5b6001600360008473ffffffffffffffffffffffffffffffffffffffff1673ffffffffffffffffffffffffffffffffffffffff16815260200190815260200160002060008282540192505081905550816002600083815260200190815260200160002060006101000a81548173ffffffffffffffffffffffffffffffffffffffff021916908373ffffffffffffffffffffffffffffffffffffffff160217905550808273ffffffffffffffffffffffffffffffffffffffff16600073ffffffffffffffffffffffffffffffffffffffff167fddf252ad1be2c89b69c2b068fc378daa952ba7f163c4a11628f55a4df523b3ef60405160405180910390a4612fd8600083836001613600565b5050565b612fe5826135b9565b613024576040517f08c379a000000000000000000000000000000000000000000000000000000000815260040161301b906152f0565b60405180910390fd5b8060066000848152602001908152602001600020908051906020019061304b929190613a4b565b507ff8e1a15aba9398e019f0b49df1a4fde98ee17ae345cb5f6b5e2c27f5033e8ce78260405161307b9190613f3d565b60405180910390a15050565b600082116130ca576040517f08c379a00000000000000000000000000000000000000000000000000000000081526004016130c19061535c565b60405180910390fd5b6040518060c001604052808481526020018273ffffffffffffffffffffffffffffffffffffffff1681526020013373ffffffffffffffffffffffffffffffffffffffff1681526020013073ffffffffffffffffffffffffffffffffffffffff16815260200183815260200160001515815250600b60008581526020019081526020016000206000820151816000015560208201518160010160006101000a81548173ffffffffffffffffffffffffffffffffffffffff021916908373ffffffffffffffffffffffffffffffffffffffff16021790555060408201518160020160006101000a81548173ffffffffffffffffffffffffffffffffffffffff021916908373ffffffffffffffffffffffffffffffffffffffff16021790555060608201518160030160006101000a81548173ffffffffffffffffffffffffffffffffffffffff021916908373ffffffffffffffffffffffffffffffffffffffff1602179055506080820151816004015560a08201518160050160006101000a81548160ff021916908315150217905550905050613266333085612a73565b827fd6b5a2ea507e15741fd76fed025e0dfe9294bea94de5e3359d76d718efd991bd82333086600060405161329f95949392919061537c565b60405180910390a2505050565b8173ffffffffffffffffffffffffffffffffffffffff168373ffffffffffffffffffffffffffffffffffffffff160361331a576040517f08c379a00000000000000000000000000000000000000000000000000000000081526004016133119061541b565b60405180910390fd5b80600560008573ffffffffffffffffffffffffffffffffffffffff1673ffffffffffffffffffffffffffffffffffffffff16815260200190815260200160002060008473ffffffffffffffffffffffffffffffffffffffff1673ffffffffffffffffffffffffffffffffffffffff16815260200190815260200160002060006101000a81548160ff0219169083151502179055508173ffffffffffffffffffffffffffffffffffffffff168373ffffffffffffffffffffffffffffffffffffffff167f17307eab39ab6107e8899845ad3d59bd9653f200f220920489ca2b5937696c318360405161340b9190613ba2565b60405180910390a3505050565b613423848484612a73565b61342f84848484613606565b61346e576040517f08c379a0000000000000000000000000000000000000000000000000000000008152600401613465906154ad565b60405180910390fd5b50505050565b606060405180602001604052806000815250905090565b6060613496826128c4565b60006134a0613474565b905060008151116134c057604051806020016040528060008152506134eb565b806134ca8461378d565b6040516020016134db929190614fcc565b6040516020818303038152906040525b915050919050565b6000816000015490506000811161353f576040517f08c379a000000000000000000000000000000000000000000000000000000000815260040161353690615519565b60405180910390fd5b6001810382600001819055505050565b60007f01ffc9a7000000000000000000000000000000000000000000000000000000007bffffffffffffffffffffffffffffffffffffffffffffffffffffffff1916827bffffffffffffffffffffffffffffffffffffffffffffffffffffffff1916149050919050565b60008073ffffffffffffffffffffffffffffffffffffffff166135db83612d6c565b73ffffffffffffffffffffffffffffffffffffffff1614159050919050565b50505050565b50505050565b60006136278473ffffffffffffffffffffffffffffffffffffffff1661385b565b15613780578373ffffffffffffffffffffffffffffffffffffffff1663150b7a0261365061290f565b8786866040518563ffffffff1660e01b8152600401613672949392919061558e565b6020604051808303816000875af19250505080156136ae57506040513d601f19601f820116820180604052508101906136ab91906155ef565b60015b613730573d80600081146136de576040519150601f19603f3d011682016040523d82523d6000602084013e6136e3565b606091505b506000815103613728576040517f08c379a000000000000000000000000000000000000000000000000000000000815260040161371f906154ad565b60405180910390fd5b805181602001fd5b63150b7a0260e01b7bffffffffffffffffffffffffffffffffffffffffffffffffffffffff1916817bffffffffffffffffffffffffffffffffffffffffffffffffffffffff191614915050613785565b600190505b949350505050565b60606000600161379c8461387e565b01905060008167ffffffffffffffff8111156137bb576137ba613fe2565b5b6040519080825280601f01601f1916602001820160405280156137ed5781602001600182028036833780820191505090505b509050600082602001820190505b600115613850578080600190039150507f3031323334353637383961626364656600000000000000000000000000000000600a86061a8153600a858161384457613843614b40565b5b049450600085036137fb575b819350505050919050565b6000808273ffffffffffffffffffffffffffffffffffffffff163b119050919050565b600080600090507a184f03e93ff9f4daa797ed6e38ed64bf6a1f01000000000000000083106138dc577a184f03e93ff9f4daa797ed6e38ed64bf6a1f01000000000000000083816138d2576138d1614b40565b5b0492506040810190505b6d04ee2d6d415b85acef81000000008310613919576d04ee2d6d415b85acef8100000000838161390f5761390e614b40565b5b0492506020810190505b662386f26fc10000831061394857662386f26fc10000838161393e5761393d614b40565b5b0492506010810190505b6305f5e1008310613971576305f5e100838161396757613966614b40565b5b0492506008810190505b612710831061399657612710838161398c5761398b614b40565b5b0492506004810190505b606483106139b957606483816139af576139ae614b40565b5b0492506002810190505b600a83106139c8576001810190505b80915050919050565b6040518060c0016040528060008152602001600073ffffffffffffffffffffffffffffffffffffffff168152602001600073ffffffffffffffffffffffffffffffffffffffff168152602001600073ffffffffffffffffffffffffffffffffffffffff168152602001600081526020016000151581525090565b828054613a57906143d1565b90600052602060002090601f016020900481019282613a795760008555613ac0565b82601f10613a9257805160ff1916838001178555613ac0565b82800160010185558215613ac0579182015b82811115613abf578251825591602001919060010190613aa4565b5b509050613acd9190613ad1565b5090565b5b80821115613aea576000816000905550600101613ad2565b5090565b6000604051905090565b600080fd5b600080fd5b60007fffffffff0000000000000000000000000000000000000000000000000000000082169050919050565b613b3781613b02565b8114613b4257600080fd5b50565b600081359050613b5481613b2e565b92915050565b600060208284031215613b7057613b6f613af8565b5b6000613b7e84828501613b45565b91505092915050565b60008115159050919050565b613b9c81613b87565b82525050565b6000602082019050613bb76000830184613b93565b92915050565b600081519050919050565b600082825260208201905092915050565b60005b83811015613bf7578082015181840152602081019050613bdc565b83811115613c06576000848401525b50505050565b6000601f19601f8301169050919050565b6000613c2882613bbd565b613c328185613bc8565b9350613c42818560208601613bd9565b613c4b81613c0c565b840191505092915050565b60006020820190508181036000830152613c708184613c1d565b905092915050565b6000819050919050565b613c8b81613c78565b8114613c9657600080fd5b50565b600081359050613ca881613c82565b92915050565b600060208284031215613cc457613cc3613af8565b5b6000613cd284828501613c99565b91505092915050565b600073ffffffffffffffffffffffffffffffffffffffff82169050919050565b6000613d0682613cdb565b9050919050565b613d1681613cfb565b82525050565b6000602082019050613d316000830184613d0d565b92915050565b613d4081613cfb565b8114613d4b57600080fd5b50565b600081359050613d5d81613d37565b92915050565b60008060408385031215613d7a57613d79613af8565b5b6000613d8885828601613d4e565b9250506020613d9985828601613c99565b9150509250929050565b600081519050919050565b600082825260208201905092915050565b6000819050602082019050919050565b613dd881613c78565b82525050565b6000613de982613cdb565b9050919050565b613df981613dde565b82525050565b613e0881613b87565b82525050565b60c082016000820151613e246000850182613dcf565b506020820151613e376020850182613df0565b506040820151613e4a6040850182613df0565b506060820151613e5d6060850182613df0565b506080820151613e706080850182613dcf565b5060a0820151613e8360a0850182613dff565b50505050565b6000613e958383613e0e565b60c08301905092915050565b6000602082019050919050565b6000613eb982613da3565b613ec38185613dae565b9350613ece83613dbf565b8060005b83811015613eff578151613ee68882613e89565b9750613ef183613ea1565b925050600181019050613ed2565b5085935050505092915050565b60006020820190508181036000830152613f268184613eae565b905092915050565b613f3781613c78565b82525050565b6000602082019050613f526000830184613f2e565b92915050565b600080600060608486031215613f7157613f70613af8565b5b6000613f7f86828701613d4e565b9350506020613f9086828701613d4e565b9250506040613fa186828701613c99565b9150509250925092565b600060208284031215613fc157613fc0613af8565b5b6000613fcf84828501613d4e565b91505092915050565b600080fd5b600080fd5b7f4e487b7100000000000000000000000000000000000000000000000000000000600052604160045260246000fd5b61401a82613c0c565b810181811067ffffffffffffffff8211171561403957614038613fe2565b5b80604052505050565b600061404c613aee565b90506140588282614011565b919050565b600067ffffffffffffffff82111561407857614077613fe2565b5b61408182613c0c565b9050602081019050919050565b82818337600083830152505050565b60006140b06140ab8461405d565b614042565b9050828152602081018484840111156140cc576140cb613fdd565b5b6140d784828561408e565b509392505050565b600082601f8301126140f4576140f3613fd8565b5b813561410484826020860161409d565b91505092915050565b6000806040838503121561412457614123613af8565b5b600083013567ffffffffffffffff81111561414257614141613afd565b5b61414e858286016140df565b925050602061415f85828601613c99565b9150509250929050565b600060408201905061417e6000830185613f2e565b61418b6020830184613d0d565b9392505050565b61419b81613b87565b81146141a657600080fd5b50565b6000813590506141b881614192565b92915050565b600080604083850312156141d5576141d4613af8565b5b60006141e385828601613d4e565b92505060206141f4858286016141a9565b9150509250929050565b600067ffffffffffffffff82111561421957614218613fe2565b5b61422282613c0c565b9050602081019050919050565b600061424261423d846141fe565b614042565b90508281526020810184848401111561425e5761425d613fdd565b5b61426984828561408e565b509392505050565b600082601f83011261428657614285613fd8565b5b813561429684826020860161422f565b91505092915050565b600080600080608085870312156142b9576142b8613af8565b5b60006142c787828801613d4e565b94505060206142d887828801613d4e565b93505060406142e987828801613c99565b925050606085013567ffffffffffffffff81111561430a57614309613afd565b5b61431687828801614271565b91505092959194509250565b6000806040838503121561433957614338613af8565b5b600061434785828601613c99565b925050602061435885828601613c99565b9150509250929050565b6000806040838503121561437957614378613af8565b5b600061438785828601613d4e565b925050602061439885828601613d4e565b9150509250929050565b7f4e487b7100000000000000000000000000000000000000000000000000000000600052602260045260246000fd5b600060028204905060018216806143e957607f821691505b6020821081036143fc576143fb6143a2565b5b50919050565b7f4552433732313a20617070726f76616c20746f2063757272656e74206f776e6560008201527f7200000000000000000000000000000000000000000000000000000000000000602082015250565b600061445e602183613bc8565b915061446982614402565b604082019050919050565b6000602082019050818103600083015261448d81614451565b9050919050565b7f4552433732313a20617070726f76652063616c6c6572206973206e6f7420746f60008201527f6b656e206f776e6572206f7220617070726f76656420666f7220616c6c000000602082015250565b60006144f0603d83613bc8565b91506144fb82614494565b604082019050919050565b6000602082019050818103600083015261451f816144e3565b9050919050565b7f4e487b7100000000000000000000000000000000000000000000000000000000600052601160045260246000fd5b600061456082613c78565b915061456b83613c78565b92508282101561457e5761457d614526565b5b828203905092915050565b600061459482613c78565b915061459f83613c78565b9250827fffffffffffffffffffffffffffffffffffffffffffffffffffffffffffffffff038211156145d4576145d3614526565b5b828201905092915050565b7f4e487b7100000000000000000000000000000000000000000000000000000000600052603260045260246000fd5b600061461982613c78565b91507fffffffffffffffffffffffffffffffffffffffffffffffffffffffffffffffff820361464b5761464a614526565b5b600182019050919050565b7f4552433732313a2063616c6c6572206973206e6f7420746f6b656e206f776e6560008201527f72206f7220617070726f76656400000000000000000000000000000000000000602082015250565b60006146b2602d83613bc8565b91506146bd82614656565b604082019050919050565b600060208201905081810360008301526146e1816146a5565b9050919050565b7f4552433732313a20696e76616c696420746f6b656e2049440000000000000000600082015250565b600061471e601883613bc8565b9150614729826146e8565b602082019050919050565b6000602082019050818103600083015261474d81614711565b9050919050565b7f4552433732313a2061646472657373207a65726f206973206e6f74206120766160008201527f6c6964206f776e65720000000000000000000000000000000000000000000000602082015250565b60006147b0602983613bc8565b91506147bb82614754565b604082019050919050565b600060208201905081810360008301526147df816147a3565b9050919050565b7f5072696365206d75737420626520657175616c20746f206c697374696e67207060008201527f726963652e000000000000000000000000000000000000000000000000000000602082015250565b6000614842602583613bc8565b915061484d826147e6565b604082019050919050565b6000602082019050818103600083015261487181614835565b9050919050565b7f4f6e6c7920746865206f776e6572206f6620746865206d61726b6574706c616360008201527f652063616e20706572666f726d2074686973206f7065726174696f6e2e000000602082015250565b60006148d4603d83613bc8565b91506148df82614878565b604082019050919050565b60006020820190508181036000830152614903816148c7565b9050919050565b7f5461782070657263656e746167652063616e6e6f74206265206d6f726520746860008201527f616e203130300000000000000000000000000000000000000000000000000000602082015250565b6000614966602683613bc8565b91506149718261490a565b604082019050919050565b6000602082019050818103600083015261499581614959565b9050919050565b7f5461782070657263656e746167652063616e6e6f74206265206d6f726520746860008201527f616e20746f74616c207461782070657263656e74616765000000000000000000602082015250565b60006149f8603783613bc8565b9150614a038261499c565b604082019050919050565b60006020820190508181036000830152614a27816149eb565b9050919050565b7f506c65617365207375626d6974207468652061736b696e67207072696365206960008201527f6e206f7264657220746f20636f6d706c6574652074686520707572636861736560208201527f2e00000000000000000000000000000000000000000000000000000000000000604082015250565b6000614ab0604183613bc8565b9150614abb82614a2e565b606082019050919050565b60006020820190508181036000830152614adf81614aa3565b9050919050565b6000614af182613c78565b9150614afc83613c78565b9250817fffffffffffffffffffffffffffffffffffffffffffffffffffffffffffffffff0483118215151615614b3557614b34614526565b5b828202905092915050565b7f4e487b7100000000000000000000000000000000000000000000000000000000600052601260045260246000fd5b6000614b7a82613c78565b9150614b8583613c78565b925082614b9557614b94614b40565b5b828204905092915050565b6000819050919050565b6000819050919050565b6000614bcf614bca614bc584614ba0565b614baa565b613c78565b9050919050565b614bdf81614bb4565b82525050565b600081519050919050565b600082825260208201905092915050565b6000819050602082019050919050565b614c1a81613cfb565b82525050565b6000614c2c8383614c11565b60208301905092915050565b6000602082019050919050565b6000614c5082614be5565b614c5a8185614bf0565b9350614c6583614c01565b8060005b83811015614c96578151614c7d8882614c20565b9750614c8883614c38565b925050600181019050614c69565b5085935050505092915050565b6000608082019050614cb86000830187614bd6565b8181036020830152614cca8186614c45565b9050614cd96040830185613d0d565b614ce66060830184613f2e565b95945050505050565b600067ffffffffffffffff821115614d0a57614d09613fe2565b5b602082029050602081019050919050565b600080fd5b600081519050614d2f81613c82565b92915050565b6000614d48614d4384614cef565b614042565b90508083825260208201905060208402830185811115614d6b57614d6a614d1b565b5b835b81811015614d945780614d808882614d20565b845260208401935050602081019050614d6d565b5050509392505050565b600082601f830112614db357614db2613fd8565b5b8151614dc3848260208601614d35565b91505092915050565b600060208284031215614de257614de1613af8565b5b600082015167ffffffffffffffff811115614e0057614dff613afd565b5b614e0c84828501614d9e565b91505092915050565b6000604082019050614e2a6000830185613d0d565b614e376020830184613f2e565b9392505050565b600081519050614e4d81614192565b92915050565b600060208284031215614e6957614e68613af8565b5b6000614e7784828501614e3e565b91505092915050565b6000614e9b614e96614e9184613cdb565b614baa565b613cdb565b9050919050565b6000614ead82614e80565b9050919050565b6000614ebf82614ea2565b9050919050565b614ecf81614eb4565b82525050565b6000604082019050614eea6000830185614ec6565b614ef76020830184613f2e565b9392505050565b7f4275726e2070657263656e746167652063616e6e6f74206265206d6f7265207460008201527f68616e2031303000000000000000000000000000000000000000000000000000602082015250565b6000614f5a602783613bc8565b9150614f6582614efe565b604082019050919050565b60006020820190508181036000830152614f8981614f4d565b9050919050565b600081905092915050565b6000614fa682613bbd565b614fb08185614f90565b9350614fc0818560208601613bd9565b80840191505092915050565b6000614fd88285614f9b565b9150614fe48284614f9b565b91508190509392505050565b7f4f6e6c79206974656d206f776e65722063616e20706572666f726d207468697360008201527f206f7065726174696f6e2e000000000000000000000000000000000000000000602082015250565b600061504c602b83613bc8565b915061505782614ff0565b604082019050919050565b6000602082019050818103600083015261507b8161503f565b9050919050565b7f4552433732313a207472616e736665722066726f6d20696e636f72726563742060008201527f6f776e6572000000000000000000000000000000000000000000000000000000602082015250565b60006150de602583613bc8565b91506150e982615082565b604082019050919050565b6000602082019050818103600083015261510d816150d1565b9050919050565b7f4552433732313a207472616e7366657220746f20746865207a65726f2061646460008201527f7265737300000000000000000000000000000000000000000000000000000000602082015250565b6000615170602483613bc8565b915061517b82615114565b604082019050919050565b6000602082019050818103600083015261519f81615163565b9050919050565b7f4552433732313a206d696e7420746f20746865207a65726f2061646472657373600082015250565b60006151dc602083613bc8565b91506151e7826151a6565b602082019050919050565b6000602082019050818103600083015261520b816151cf565b9050919050565b7f4552433732313a20746f6b656e20616c7265616479206d696e74656400000000600082015250565b6000615248601c83613bc8565b915061525382615212565b602082019050919050565b600060208201905081810360008301526152778161523b565b9050919050565b7f45524337323155524953746f726167653a2055524920736574206f66206e6f6e60008201527f6578697374656e7420746f6b656e000000000000000000000000000000000000602082015250565b60006152da602e83613bc8565b91506152e58261527e565b604082019050919050565b60006020820190508181036000830152615309816152cd565b9050919050565b7f5072696365206d757374206265206174206c656173742031207765692e000000600082015250565b6000615346601d83613bc8565b915061535182615310565b602082019050919050565b6000602082019050818103600083015261537581615339565b9050919050565b600060a0820190506153916000830188614ec6565b61539e6020830187613d0d565b6153ab6040830186613d0d565b6153b86060830185613f2e565b6153c56080830184613b93565b9695505050505050565b7f4552433732313a20617070726f766520746f2063616c6c657200000000000000600082015250565b6000615405601983613bc8565b9150615410826153cf565b602082019050919050565b60006020820190508181036000830152615434816153f8565b9050919050565b7f4552433732313a207472616e7366657220746f206e6f6e20455243373231526560008201527f63656976657220696d706c656d656e7465720000000000000000000000000000602082015250565b6000615497603283613bc8565b91506154a28261543b565b604082019050919050565b600060208201905081810360008301526154c68161548a565b9050919050565b7f436f756e7465723a2064656372656d656e74206f766572666c6f770000000000600082015250565b6000615503601b83613bc8565b915061550e826154cd565b602082019050919050565b60006020820190508181036000830152615532816154f6565b9050919050565b600081519050919050565b600082825260208201905092915050565b600061556082615539565b61556a8185615544565b935061557a818560208601613bd9565b61558381613c0c565b840191505092915050565b60006080820190506155a36000830187613d0d565b6155b06020830186613d0d565b6155bd6040830185613f2e565b81810360608301526155cf8184615555565b905095945050505050565b6000815190506155e981613b2e565b92915050565b60006020828403121561560557615604613af8565b5b6000615613848285016155da565b9150509291505056fea2646970667358221220105e322f5916fce371b8578708d26d5f5f51de9f3bf5214a57178e345d283f5d64736f6c634300080d0033",
  "linkReferences": {},
  "deployedLinkReferences": {}
}